:020000040C00EE
:1000000000C8FF1F010200089102000891020008C9
:10001000910200089102000891020008000000000F
:100020000000000000000000000000009102000835
:10003000910200080000000091020008351D000830
:100040009102000891020008910200089102000844
:100050009102000891020008910200089102000834
:1000600091020008000000000000000000000000F5
:1000700091020008000000009102000891020008AF
:100080009102000891020008910200089102000804
:1000900091020008910200089102000891020008F4
:1000A000910200089102000800000000000000001A
:1000B0000000000000000000000000000000000040
:1000C0000000000000000000000000000000000030
:1000D0000000000000000000000000000000000020
:1000E00000000000000000009102000891020008DA
:1000F0009102000891020008910200089102000894
:10010000910200083D3500089102000891020008A4
:1001100000000000000000000000000000000000DF
:1001200000000000000000000000000000000000CF
:100130009102000891020008910200089102000853
:1001400000000000000000000000000000000000AF
:100150009102000891020008000000000000000069
:100160009102000891020008910200089102000823
:100170009102000891020008910200089102000813
:100180009102000891020008910200089102000803
:1001900091020008910200089102000891020008F3
:1001A00091020008910200080D2C0008FD2B0008A8
:1001B00091020008910200089102000891020008D3
:1001C000000000000000000000000000000000002F
:1001D0000000000000000000910200080000000084
:1001E000910200089102000800000000910200083E
:1001F00000000000000000000000000000000000FF
:10020000DFF86CD01B4880471B4C1C4DAC4209DA10
:1002100021686268A368043BA2BFC858D050FAE7BF
:100220000C34F3E7164B174CA34208DA19685A68E6
:100230000020043AA4BF8850FBE70833F4E71248D3
:10024000804712488047000054E6000C00C8FF1F9A
:10025000C000000054E6000C00C8FF1F00000000B2
:10026000C0C8FF1F001300000000002000000000B5
:1002700000C8FF1F9502000848020008600200083D
:100280006002000870020008C1B70008D9340008F5
:10029000FEE7000098B500AF084A4FF0005314463F
:1002A0000FCB84E80F00064B064A07CA83E8070015
:1002B00003F050F803F0B8F898BD00BFC45F002009
:1002C000D45F00208400002080B584B000AF2F4BA5
:1002D000DB6803F48033002B3ED02D4BDB6803F04A
:1002E0000103002B02D02B4BFB6002E003F092F8DD
:1002F000F860274B1B6803F00403002B20D0244B2D
:100300009B6803F070631B0E0133BB60204B9B683E
:1003100003F4FE431B0A01337B601D4B9B6803F40F
:10032000FE031B0C01333B60BB683A6802FB03F31E
:10033000FA68B2FBF3F37A6802FB03F3FB600DE0AB
:10034000134B9B6803F07F0301333B60FA683B6803
:10035000B2FBF3F3FB6001E00E4BFB600B4BDB6881
:10036000DBB20133FA68B2FBF3F3FB60074B1B69A6
:1003700003F001030133FA68B2FBF3F3FB60064AB2
:10038000FB6813601037BD4680BD00BF00460050BB
:100390001047005000366E01C05F002080B485B069
:1003A00000AFF8600B467A60FB72FB7A9B08DBB209
:1003B0001846FB7A9B08DBB21A46FB68043253F8F6
:1003C0002220FB7A03F00303DB001946F8238B405D
:1003D000DB4302EA0301FB68021D43F82210FB68BD
:1003E0005A6FFB7A5B00194603238B40DB431A40AC
:1003F000FB685A67FB68384A93420AD1FB681A6E59
:10040000FB7A012101FA03F3DB431A40FB681A6609
:1004100042E07B681B78DBB25BB2002B3CDA7B6886
:100420005A68FB7A9A40FB685A60FB7ADB08DBB2B9
:100430001846FB7ADB08DBB21A46FB68103253F829
:100440002220FB7A03F007039B00194607238B4009
:10045000DB4302EA0301FB6800F1100243F82210BB
:10046000FB7ADB08DBB21846FB7ADB08DBB21A4604
:10047000FB68103253F822207B681B7A1946FB7AFE
:1004800003F007039B0001FA03F342EA0301FB6850
:1004900000F1100243F82210FB7A9B08DBB21846E9
:1004A000FB7A9B08DBB21A46FB68043253F8222021
:1004B0007B681B781946FB7A03F00303DB0001FA23
:1004C00003F342EA0301FB68021D43F822101437CC
:1004D000BD465DF8047B7047008E024880B400AFD3
:1004E000034B1B681846BD465DF8047B704700BF90
:1004F000C05F002080B400AF034BD3F8C43018466F
:10050000BD465DF8047B70470040005080B584B064
:1005100000AF7860FFF7D8FE0B4B1B680B4AA2FBBD
:1005200003239A0C7B6802FB03F37B600023FB60D0
:1005300003E000BFFB680133FB60FA687B689A4206
:10054000F7D31037BD4680BDC05F002083DE1B435C
:1005500080B400AF034B5B681846BD465DF8047B72
:10056000704700BF7440005080B483B000AF786023
:10057000034A7B68D3600C37BD465DF8047B704747
:1005800074400050B0B584B002AF7860002000F035
:10059000C5F800F0B3FA7B68DB79002B0AD000F0D5
:1005A000EBFA00BF00F0D6FA034683F00103DBB29A
:1005B000002BF7D17B685B7A184600F029F900BF61
:1005C000FFF798FF0346002BFAD17B681B7A184689
:1005D00000F06EFA7B681B7C184600F037F97B68E8
:1005E0005B7C184600F05AF97B689B7C184600F04B
:1005F00041F97B68DB7C184600F064F97B689B79E5
:10060000002B0AD000F0F0FA00BF00F015FB034603
:1006100083F00103DBB2002BF7D17B68DB78002B82
:1006200009D17B689B7983F00103DBB2002B17D0E3
:1006300000F026FB14E000F013FB7B6899887B68D0
:10064000DA787B685B781D467B681B781C467B6884
:100650009B780093084611462A46234600F020FB6B
:100660007B68DB68B3F5803F03D14FF4803000F046
:1006700055F8FFF729FE0837BD46B0BD80B485B0F8
:1006800000AF78607B681B0FFB607B6823F07043D2
:10069000BB60FA6813465B0013449B001A46044B88
:1006A0001344BA681A601437BD465DF8047B70477E
:1006B0001444005080B485B000AF78607B681B0F95
:1006C000FB607B6823F07043BB60FA6813465B00F5
:1006D00013449B001A46084B13441A68BB68134026
:1006E000002B14BF01230023DBB218461437BD468C
:1006F0005DF8047B704700BF0C44005080B500AF2C
:10070000FFF7ECFE0246044B5B6903F0010322FA9B
:1007100003F3184680BD00BF0046005080B483B08C
:1007200000AF78600649064BDB6823F480327B68B3
:100730001343CB600C37BD465DF8047B704700BFA8
:100740000046005080B483B000AF78600649064B85
:100750009B6923F480327B6813438B610C37BD4661
:100760005DF8047B704700BF0046005080B483B042
:1007700000AF78600649064B5B6A23F440327B6821
:1007800013434B620C37BD465DF8047B704700BFD6
:100790000046005080B483B000AF0346FB80FB8866
:1007A000002B08D10A4A0A4BDB6823F4807323F03C
:1007B0000103D36007E0064A054BDB6843F480730E
:1007C00043F00103D3600C37BD465DF8047B7047EE
:1007D0001047005080B483B000AF0346FB7100BFE8
:1007E000094BD3F8C43003F00803002BF8D10749B4
:1007F000064BDB6823F04002FB791343CB600C37D8
:10080000BD465DF8047B7047004000500043005037
:1008100080B483B000AF0346FB7100BF094BD3F82F
:10082000C43003F00803002BF8D10749064BDB68FE
:1008300023F08002FB791343CB600C37BD465DF893
:10084000047B7047004000500043005080B483B0E8
:1008500000AF78600649064BDB6823F0FF027B6837
:10086000013B1343CB600C37BD465DF8047B7047FA
:100870000046005080B483B000AF78600649064B54
:100880001B6A23F001027B68013B13430B620C37A8
:10089000BD465DF8047B70470046005080B483B0CD
:1008A00000AF78600649064B1B6923F001027B68A4
:1008B000013B13430B610C37BD465DF8047B704769
:1008C0000046005080B483B000AF78600649064B04
:1008D0005B6923F001027B68013B13434B610C37DA
:1008E000BD465DF8047B70470046005080B483B07D
:1008F00000AF78600649064B9B6923F007027B68CE
:10090000013B13438B610C37BD465DF8047B704798
:100910000046005080B483B000AF78600649064BB3
:100920005B6A23F0FF027B68013B13434B620C3789
:10093000BD465DF8047B70470046005080B483B02C
:1009400000AF0346FB71044AFB7953600C37BD4688
:100950005DF8047B704700BF0046005080B485B04E
:1009600000AF78607B681B0FFB607B6823F07043EF
:10097000BB60FA6813465B0013449B001A46044BA5
:100980001344BA681A601437BD465DF8047B70479B
:100990004846005080B485B000AF78607B681B0F7C
:1009A000FB607B6823F07043BB60FA6813465B0012
:1009B00013449B001A46084B13441A68BB68134043
:1009C000002B14BF01230023DBB218461437BD46A9
:1009D0005DF8047B704700BF4046005080B400AF14
:1009E000054A054B5B6923F4803323F0020353610E
:1009F000BD465DF8047B70471047005080B483B05B
:100A000000AF78603960284A274B5B6943F00103E7
:100A1000536100BF244B1B6903F00103002BF9D085
:100A2000214A214B5B6943F0100353611E493B6827
:100A3000013B1A027B68013B1B0613434B611A4AB8
:100A4000194B5B6943F040035361174A164B5B69CE
:100A500023F010035361144A134B5B6943F4802362
:100A6000536100BF104B1B6903F00403002BF9D046
:100A70000D4A0D4B5B6923F00103536100BF0A4B24
:100A80001B6903F00103002BF9D1074A064B5B6990
:100A900023F040035361054B0822DA600C37BD4652
:100AA0005DF8047B704700BF104700506041005064
:100AB00080B582B000AF0346FB710F4A0E4B5B68F6
:100AC00043F480135360FB79012B0ED10A4A0A4B81
:100AD0005B6823F4801353606420FFF717FD064A18
:100AE000054B5B6843F4002353606420FFF70EFD61
:100AF0000837BD4680BD00BF1047005080B400AF2E
:100B0000124B1B6803F00103002B09D10F4B01228C
:100B10005A6000BF0D4B1B6803F00103002BF9D096
:100B20000B4B1B6803F40073002B0AD0084B4FF4E7
:100B300000729A6000BF064B1B6803F40073002B21
:100B4000F9D1BD465DF8047B704700BF00420050FC
:100B50000044005080B400AF064B1B6803F008034C
:100B6000002B0CBF01230023DBB21846BD465DF805
:100B7000047B70470043005080B500AF4FF4000085
:100B8000FFF7F2FC174A174BDB6923F03003D36100
:100B900000BFFFF7DDFC034603F40003002BF8D091
:100BA0004FF40030FFF7E0FC0E4B08225A6000BF04
:100BB000FFF7CEFC034603F40033002BF8D04FF4CC
:100BC0000020FFF7D1FC074A064BDB6843F008031F
:100BD000D36000BFFFF7BCFC034603F40023002BE7
:100BE000F8D080BD00430050B0B500AF0F4A0F4BA6
:100BF0005B6823F4803353600D4D0D4B5B6823F429
:100C0000702424F0300402F005FC0246094BA3FBDB
:100C100002231B0D013B1B0423436B60034A034B60
:100C20005B6823F400335360B0BD00BF1047005031
:100C3000004700506BCA5F6B80B400AF074B1B6866
:100C400003F46073B3F5607F0CBF01230023DBB2B4
:100C50001846BD465DF8047B704700BF1047005042
:100C600080B400AF054A054B5B6823F4803323F062
:100C700002035360BD465DF8047B70471047005087
:100C800080B400AF054A054B5B6843F4803343F002
:100C900002035360BD465DF8047B70471047005067
:100CA00080B586B000AFBA607B600346FB810B461F
:100CB0007B73FB891846FFF76DFD7B7B012B40F0B2
:100CC0008B80FB89002B09D102F0A4FB0246544B18
:100CD000A3FB02239B0C9B057B6102E04FF0C063EA
:100CE0007B617B697A6802FB03F2BB68B2FBF3F3BA
:100CF0007B617B694B4AA2FB03231B099B0D3B6174
:100D0000494A494B5B6843F00103536000BF464BBF
:100D10001B6803F00103002BF9D0434A424B5B6888
:100D200043F01003536040493F4B9A683F4B1340D8
:100D30007A68013A12021A433B69013B1B041A43C9
:100D4000BB68013B1B0613438B60374A364B5B681D
:100D500043F040035360344A334B5B6823F0100385
:100D60005360314A304B5B6843F48023536000BFCB
:100D70002D4B1B6803F00403002BF9D02A4A2A4BA1
:100D80005B6823F00103536000BF274B1B6803F02F
:100D90000103002BF9D17B69254AA2FB03235B09E0
:100DA0009B0D3B613A6A3B699A4202D2386900F076
:100DB00045F87B695B081F4AA2FB03235B099B0D77
:100DC0003B613A6A3B699A4202D2386900F036F8D0
:100DD000386A00F033F81CE01349134B9B6823F08A
:100DE0007F023B6A013B13438B6000BF0E4B1B68C5
:100DF00003F01003002BF9D00B4A0B4B5B6843F058
:100E00000103536000BF084B1B6803F00103002B74
:100E1000F9D0094B0522DA601837BD4680BD00BF06
:100E200083DE1B43ABAAAAAA10470050FF8080F0C4
:100E300089888888B7600BB66041005080B582B061
:100E400000AF78600B490B4B9B6823F4FE027B6874
:100E5000013B1B0413438B6000BF064B1B6803F070
:100E60002003002BF9D03220FFF750FB0837BD4696
:100E700080BD00BF1047005080B483B000AF7860E1
:100E80007B684FF48072DA600C37BD465DF8047BF6
:100E9000704700BF80B582B000AF78607B68084AB9
:100EA000934203D10420FFF7E9FB06E07B68054A83
:100EB000934202D10820FFF7E1FB0837BD4680BD11
:100EC00000C000400000014080B582B000AF7860F3
:100ED0007B68084A934203D10420FFF73FFD06E0F8
:100EE0007B68054A934202D10820FFF737FD083797
:100EF000BD4680BD00C000400000014080B582B00A
:100F000000AF78601020FFF719FD7868FFF7DCFF6D
:100F10007868FFF7BFFF0837BD4680BD80B584B055
:100F200000AF78600B46FB707868FFF7E7FF7868E2
:100F3000FFF7A2FF7B681B68FB60FB6823F440435C
:100F4000FB60FB789B03FA681343FB607B68FA68DD
:100F50001A601037BD4680BD80B483B000AF7860A2
:100F600039603B681A687B685A613B685B79C3F3F8
:100F70004013DBB21A057B685A603B681B79C3F3E8
:100F80000303DBB21A467B685A623B685B79C3F3A2
:100F90000303DBB21A467B681A623B685B79C3F3D2
:100FA0000013DBB21A467B689A613B681B79C3F376
:100FB0000313DBB21A467B68DA620C37BD465DF874
:100FC000047B704780B487B000AF78600B46FB703D
:100FD0001346BB70FB780B2B36D801A252F823F0D6
:100FE00011100008111000081B1000081B10000849
:100FF000491000084910000849100008491000086D
:1010000025100008311000083D1000083D100008B0
:1010100003233B6100237B611BE00C233B61022324
:101020007B6116E04FF440733B6108237B6110E065
:101030004FF440633B610A237B610AE04FF4405365
:101040003B610C237B6104E000233B6100237B6157
:1010500000BF3B69002B13D07B68D3F8A830FB603E
:101060003B69DB43FA681340FB60BA787B6902FA9C
:1010700003F3FA681343FB607B68FA68C3F8A8209F
:101080001C37BD465DF8047B704700BF80B483B059
:1010900000AF78607B689B6BDBB223F07F03DBB231
:1010A00018460C37BD465DF8047B704780B483B0AA
:1010B00000AF786039607B68DA6C3B681A437B6804
:1010C000DA640C37BD465DF8047B704780B584B0A8
:1010D00000AFF860B9601346FB71F86800F0D0F813
:1010E000BB685B79002B15D1FB79002B12D0BB6854
:1010F0001B79002B07D0BB681B68F86819460222D1
:1011000000F06AF906E0BB681B68F868194602221D
:1011100000F0F0F8FB680F4A5A63FB684FF4A262D4
:101120009A63BB685B79002B07D1BB689B7943F05E
:101130000B03DBB21A46FB68DA63FB684FF0FF3241
:10114000DA64BB681B891A46FB681A641037BD460F
:1011500080BD00BF02013F0780B483B000AF78605C
:1011600039607B68DB6B23F47F027B68DA637B6822
:10117000DA6B3B681A437B68DA630C37BD465DF86F
:10118000047B704780B582B000AF78607868012139
:10119000FFF78CFF7B68DB6B23F47F027B68DA63ED
:1011A0000837BD4680BD00BF80B582B000AF786013
:1011B0000B467B8013467B707B681B6C23F0C00260
:1011C0007B789B01DBB21A437B681A647B68D3F897
:1011D000083103F0E063002B12D100BF7868FFF7FD
:1011E00055FF0346802BF9D078684FF40051FFF784
:1011F0005DFF7A7879887B68203243F8221005E019
:101200007A7879887B68603243F822100837BD46C7
:1012100080BD00BF80B485B000AF78607B68D3F834
:101220000C3103F0E063002B03D17B685B6DFB8125
:1012300003E07B68D3F81C31FB81FB891846143727
:10124000BD465DF8047B704780B483B000AF786022
:1012500039607B681A6C3B6803F4FE33DB431A4049
:101260007B681A647B68DA6B3B685B039BB2DB4389
:101270001A407B68DA630C37BD465DF8047B704723
:1012800080B582B000AF78607B68144A934203D087
:101290007B68134A934203D1124800F0DFF90AE059
:1012A0007B68114A934203D07B68104A934202D173
:1012B0000F4800F0D3F97B680322DA6000BF7B6837
:1012C000DB6803F00103002BF9D07B681B6C23F073
:1012D0000F027B681A640837BD4680BD00000340DA
:1012E00000020340080003400000024800020248D8
:1012F0000800024880B58EB000AFF860B9607A602F
:10130000BB68632B5AD97B68002B57D0FFF7F6F9DF
:1013100002462F4BA3FB02235B093B62BB682C4AAE
:10132000A2FB03235B09BB604FF48063FB620123D4
:10133000BB6240F2FF337B624FF480633B6322E089
:101340003B6A3A6B02FB03F2BB68796801FB03F36B
:10135000B2FBF3F3FB61FB699B0ABB61FB69C3F35F
:1013600009037B61BB69B3F5806F09D87A697B6A31
:101370009A4205D27B697B62BB69BB623B6BFB62B5
:101380003B6B013B3B633B6B002BD9D1FB6A013BC1
:1013900043F40042FB681A61FB685A690D4B134025
:1013A0007A68013A92021A43BB6A013B1B041A4352
:1013B000FB685A61002387F8373002E0012387F881
:1013C000373097F8373018463837BD4680BD00BFF4
:1013D0001F85EB51EF8000FC80B58CB000AFF8604A
:1013E000B9607A60FFF78AF903463B62BB687A68A6
:1013F00002FB03F3FB610123FB623A6AFB699A4239
:101400005FDD3A6AFB6992FBF3F3BB6210E0FB6AB3
:101410000133FB62BB687A6802FB03F31A46FB6A7E
:1014200003FB02F3FB613A6AFB6992FBF3F3BB62D5
:10143000BB6A40F2FE329342E9D83A6A7B68B96AE5
:1014400001FB03F3F96A01FB03F3B2FBF3F3BB61A6
:101450003A6ABB6A0133796801FB03F3F96A01FB5D
:1014600003F3B2FBF3F37B61BA687B69D31A83EAB7
:10147000E372A2EBE372B968BB69CB1A002BB8BF69
:101480005B429A4202DABB6A0133BB62BB6AC3F5B4
:101490008063BB62BB6A43F48042FB681A61FB68ED
:1014A0005A690C4B13407A68013A92021A43FB6A5C
:1014B000013B1B041A43FB685A61002387F827305D
:1014C00002E0012387F8273097F827301846303795
:1014D000BD4680BDEF8000FC80B485B000AFF860F1
:1014E000B9603B601346FB71FB68D3F8083123F009
:1014F000E062FB68C3F80821FB68D3F80821094BB8
:1015000013403A681102BA681143FA7912060A4385
:101510001A43FB68C3F808211437BD465DF8047B05
:10152000704700BFC0C0FFF880B485B000AFF8605E
:10153000B9603B601346FB71FB68D3F80C3123F0B4
:10154000E062FB68C3F80C21FB68D3F80C210A4B5E
:1015500013403A681102BA681143FA7912060A4335
:10156000134343F08052FB68C3F80C211437BD4687
:101570005DF8047B704700BFC0C0FFEF80B485B04A
:1015800000AFF8600B467A60FB72FB68D3F80C3151
:1015900023F47C527B681B021A43FB68C3F80C21BE
:1015A0001437BD465DF8047B704700BF80B485B03A
:1015B00000AFF8600B467A60FB72FB689A69FB7AB1
:1015C000072101FA03F3DB431A40FB7A796801FA39
:1015D00003F31A43FB689A611437BD465DF8047B38
:1015E000704700BF80B485B000AFF8600B467A60EA
:1015F000FB72FB68D3F80821FB7A072101FA03F399
:10160000DB431A40FB7A796801FA03F31A43FB685B
:10161000C3F808211437BD465DF8047B704700BF4E
:1016200080B485B000AFF8600B467A60FB72FB684F
:10163000D3F80C21FB7A072101FA03F3DB431A40AC
:10164000FB7A796801FA03F31A43FB68C3F80C21AB
:101650001437BD465DF8047B704700BF80B582B08B
:1016600000AF78607B681B4A934218D14FF400604A
:10167000FFF774F900BF4FF40060FFF78BF90346E2
:10168000002BF8D14FF40060FEF7F8FF00BF4FF4D5
:101690000060FFF70FF80346002BF8D117E07B68D6
:1016A0000D4A934213D10D48FFF758F900BF0B487C
:1016B000FFF770F90346002BF9D10848FEF7DEFF6B
:1016C00000BF0648FEF7F6FF0346002BF9D10837A6
:1016D000BD4680BD0800034008000248800000109D
:1016E00080B400AFBD465DF8047B704780B483B022
:1016F00000AF78600B46FB70FB7801229A407B6854
:10170000DA600C37BD465DF8047B704780B483B067
:1017100000AF78607B680122DA600C37BD465DF867
:10172000047B704780B483B000AF78607B6802228E
:101730001A610C37BD465DF8047B704780B483B0F6
:1017400000AF78600B467B807A887B685A630C37E1
:10175000BD465DF8047B704780B483B000AF78600D
:101760000B467B807A887B68DA630C37BD465DF870
:10177000047B704780B483B000AF786039607B68C9
:101780003A681A610C37BD465DF8047B704700BFAC
:1017900080B483B000AF78600B46FB707B68D3F8F1
:1017A000A420FB78012101FA03F31A437B68C3F8F4
:1017B000A4200C37BD465DF8047B704780B584B02B
:1017C00000AF78600023FB737B6893F8263083F0CA
:1017D0000103DBB2002B09D07B6893F82130002B8A
:1017E00004D1786800F008F80346FB73FB7B1846C9
:1017F0001037BD4680BD00BF80B584B000AF7860B3
:101800007B681B69184601F061FD0346FB737B682A
:101810001B699A687B681B7E10461946FFF766FFB6
:101820007B685A697B68DB6910461946FFF794FBB1
:10183000786800F02DF87B6893F82530002B0FD0E6
:101840007B685A697B6893F82030104600211A465D
:10185000FFF7B8FB7B685B6918460021FFF798FF2C
:101860007B685B691846FFF75DFF7B68012283F8A0
:1018700026207B6893F82430002B04D07B685B69BA
:101880001846FFF743FFFB7B18461037BD4680BD67
:1018900080B582B000AF78607B685A697B685B8CEA
:1018A00010461946FFF74AFF7B685B69184600211E
:1018B000FFF752FF7B681B699A687B68DB681046FC
:1018C0001946FFF757FF0837BD4680BD80B400AF0B
:1018D000044BDB6803F4E0631B0A1846BD465DF861
:1018E000047B704700ED00E080B483B000AF034696
:1018F0003960FB7197F90730002B0ADB0D4997F926
:1019000007303A68D2B29200D2B20B4483F8002377
:101910000AE00949FB7903F00F03043B3A68D2B2AD
:101920009200D2B20B441A760C37BD465DF8047BA8
:10193000704700BF00E100E000ED00E080B489B036
:1019400000AFF860B9607A60FB6803F00703FB61E1
:10195000FB69C3F10703062B28BF0623BB61FB69A4
:101960000633062B02D9FB69013B00E000237B61B3
:10197000BB69012202FA03F35A1EBB681A407B6955
:101980009A407B69012101FA03F3591E7B680B40E1
:10199000134318462437BD465DF8047B704700BFEB
:1019A00080B582B000AF78607B68013BB3F1807F87
:1019B00001D301230FE00A4A7B68013B53604FF0DB
:1019C000FF303F21FFF790FF054B00229A60044B48
:1019D00007221A60002318460837BD4680BD00BFA5
:1019E00010E000E090B486B000AF78600023FB7395
:1019F0006B497A681346DB0013449B000B44183391
:101A00001B68BB60674B1B68002B09D17A681346C3
:101A1000DB0013449B00624A1344624A1360BBE03C
:101A2000604B1B687B61BB683B61ABE07B699B697A
:101A30001A463B699B1A3B613B69002B7ADC7B6948
:101A40005B68002B26D07B6959687A681346DB00F7
:101A500013449B00524A13440B607B6959685048F9
:101A60007A681346DB0013449B00034459604C49D9
:101A70007A681346DB0013449B000B447A691A60B2
:101A80007A681346DB0013449B00454A1A447B697D
:101A90005A601CE0434B196841487A681346DB00E2
:101AA00013449B00034419603E4B19687A6813463F
:101AB000DB0013449B003A4A13444B607A68134698
:101AC000DB0013449B00364A1344364A1360344902
:101AD0007A681346DB0013449B000B441B689A6929
:101AE0003B69D1182E487A681346DB0013449B00EB
:101AF0000344183319602A497A681346DB001344FB
:101B00009B000B44196826487A681346DB0013448F
:101B10009B0003441B689869214C7A681346DB00DC
:101B200013449B00234418331B68C31A8B610123A1
:101B3000FB7324E03B69002B21DD7B691B68002BD4
:101B40001DD117497A681346DB0013449B000B44F0
:101B50007A695A607A681346DB0013449B00104A86
:101B60001A447B691A6039690D487A681346DB00AC
:101B700013449B000344183319600123FB737B69F2
:101B80001B687B617B69002B06D0FB7B83F0010324
:101B9000DBB2002B7FF44AAF1837BD4690BC7047CC
:101BA000A4D9FF1F78C9FF1F80B485B000AF78604B
:101BB0007A681346DB0013449B00294A1344FB60F8
:101BC000FB685B68002B07D1FB681B68002B03D107
:101BD000244B00221A603DE0FB685B68002B14D1A7
:101BE000FB681B681F4A13601E4B1B6800225A606B
:101BF0001C4B1B681B4A12689169FA6892690A4477
:101C00009A61FB6800221A6024E0FB681B68002BC5
:101C100007D1FB685B6800221A60FB6800225A60EB
:101C200018E0FB685B68FA6812681A60FB681B685A
:101C3000FA6852685A60FB681B68FA681268916912
:101C4000FA6892690A449A61FB6800221A60FB688C
:101C500000225A601437BD465DF8047B704700BF10
:101C6000A4D9FF1F78C9FF1F80B582B000AF2F4BEA
:101C70001B687B6050E07B6893F82030002B13D00A
:101C80007B685B691846FFF78FFF7B6800225A73F9
:101C90007B685B691A4601239340DA43244B1B6837
:101CA0001340234A136034E07B681B7B002B12D166
:101CB0007B685B7B012B2CD17B685B691846FFF747
:101CC00073FF7B6802225A737B689B687A6812698B
:101CD000104698471DE07B681B7B012B18D17B6861
:101CE0005B7B012B15D17B685B691846FFF75CFFB6
:101CF0007B68DA697B689A617B685B691846FFF7E5
:101D000071FE7B689B687A6812691046984700E00C
:101D100009E0064B1B687B607B68002B03D07B6867
:101D20009B69002BA7D00837BD4680BD78C9FF1F2F
:101D30007CC9FF1F80B582B000AF0E4B1B687B6073
:101D40000D4B1B6801330C4A13607B68002B0ED0CF
:101D50007B689B69012B05D97B689B695A1E7B6850
:101D60009A6104E07B6800229A61FFF77DFF0837E3
:101D7000BD4680BD78C9FF1F80C9FF1F80B584B0F4
:101D800000AF78600023FB737B681B7883F001034E
:101D9000DBB2002B20D0134B00221A601248FFF751
:101DA000FFFD0346FB73FB7B012B15D0FFF78EFD78
:101DB000034618463F210022FFF7C0FD03464FF0BF
:101DC000FF301946FFF790FD084B00221A607B6830
:101DD00001221A700023FB73FB7B18461037BD46A7
:101DE00080BD00BF78C9FF1F803801007CC9FF1F7C
:101DF00080B485B000AFF8600B467A607B8179894A
:101E0000FB687A68203243F822101437BD465DF82B
:101E1000047B704780B483B000AF786039607B6822
:101E20001A6C3B681A437B681A640C37BD465DF830
:101E3000047B704780B483B000AF786039607B6802
:101E40001A6C3B68DB431A407B681A640C37BD464A
:101E50005DF8047B704700BF80B483B000AF78604A
:101E60007B689B6BDBB223F07F03DBB218460C3739
:101E7000BD465DF8047B704780B483B000AF7860E6
:101E80007B681B6D03F4C04318460C37BD465DF8F4
:101E9000047B704780B483B000AF786039603B68E2
:101EA0004FF480329A407B689A660C37BD465DF8E5
:101EB000047B704780B483B000AF786039607B6882
:101EC000D3F808213B681A437B68C3F808210C3714
:101ED000BD465DF8047B704780B483B000AF786086
:101EE00039607B68D3F808213B68DB431A407B6884
:101EF000C3F808210C37BD465DF8047B704700BF6E
:101F000080B485B000AFF8600B467A607B81798938
:101F1000FB687A68603243F822101437BD465DF8DA
:101F2000047B704780B483B000AF78607B684FF467
:101F30000042C3F818210C37BD465DF8047B70479A
:101F400080B483B000AF78607B68D3F8143103F4B9
:101F50008053002B14BF01230023DBB218460C373B
:101F6000BD465DF8047B704780B483B000AF7860F5
:101F70007B68D3F8143103F40063002B14BF0123F2
:101F80000023DBB218460C37BD465DF8047B704772
:101F900080B483B000AF786039607B68D3F80C21DF
:101FA0003B681A437B68C3F80C210C37BD465DF8CB
:101FB000047B704780B483B000AF786039607B6881
:101FC000D3F80C213B68DB431A407B68C3F80C2133
:101FD0000C37BD465DF8047B704700BF80B483B00A
:101FE00000AF78607B684FF48042C3F818210C374B
:101FF000BD465DF8047B704780B483B000AF786065
:102000007B68D3F8143103F00803002B14BF0123BD
:102010000023DBB218460C37BD465DF8047B7047E1
:1020200080B483B000AF78600B46FB707B681B6C9C
:1020300023F0C002FB789B01DBB21A437B681A6471
:102040000C37BD465DF8047B704700BF80B584B097
:1020500000AF78607B685B685B6898470346FB73FA
:10206000FB7B18461037BD4680BD00BF80B586B0EB
:1020700000AFF860B9607A600123FB75FB685B68AC
:1020800093F88430002B06D1F868B9687A6800F0BC
:1020900021F80346FB75FB7D18461837BD4680BD09
:1020A00080B586B000AFF860B9607A600123FB7537
:1020B000FB685B6893F88530002B06D1F868B96837
:1020C0007A6800F07DF80346FB75FB7D18461837EB
:1020D000BD4680BD80B588B000AFF860B9607A6059
:1020E0000123BB610423FB77FB689B687B61FB6872
:1020F0005B6893F88430002B5CD1BB68002B57D011
:102100007B68002B54D00223FB777B6993F8203047
:10211000DBB283F00103DBB2002B48D0FB689B6885
:102120001B68082B01D90223BB617B69BA689A61DD
:10213000BB69013B1A467B6803FA02F27B695A606D
:102140007B6900229A607B69012283F82020FB686A
:102150005B6893F87C30002B0CD0FB681B6818463A
:10216000FFF7E0FEFB681B6818464FF08041FFF761
:10217000A1FE06E0FB681B6818464FF40051FFF70C
:1021800049FEFB681A687B691B7FDBB21046194663
:10219000FFF746FF0023FB77FB681A68FB685B6864
:1021A00093F8893010461946FFF774FE02E001E00B
:1021B0000323FB77FB7F18462037BD4680BD00BF59
:1021C00080B586B000AFF860B9607A600423FB7513
:1021D000FB689B683B61FB685B6893F88530002B6C
:1021E00036D10223FB75BB68002B2FD07B68002BF8
:1021F0002CD03B69DB7FDBB283F00103DBB2002B29
:1022000023D03B6993F82030DBB283F00103DBB2CB
:10221000002B1AD03B690122DA773B69BA685A6110
:102220003B690E4A9A613B697A685A603B690122B0
:1022300083F821203B69002283F82220F86879681E
:1022400000F0F2F80346FB7502E001E00323FB75A2
:10225000FB7D18461837BD4680BD00BF48C8FF1F2C
:1022600090B587B000AF786001233B617B689B68C5
:10227000FB607B689B681B68082B01D902233B61CC
:10228000FB689A68FB685B689A4280F08B80002349
:10229000FB827B685B6893F87C30002B4BD03EE080
:1022A000FB689A68FB685B689A4236D2FB6893F8D1
:1022B0002130DBB2002B0BD07B681A68FB681B7FD8
:1022C000DBB210464FF6FF711A46FFF719FE1DE00C
:1022D0003B69022B07D1FB689A69FB689B68134432
:1022E0001B88FB8206E0FB689A69FB689B681344C5
:1022F0001B78FB827B681A68FB681B7FDBB21C467D
:10230000FB8A104619462246FFF7FAFDFB689A68D9
:102310003B691A44FB689A6001E000BF80E07B687B
:102320001B681846FFF70CFE034683F00103DBB27F
:10233000002BB5D174E0FB6893F82130DBB2002BA1
:102340000BD07B681A68FB681B7FDBB210464FF628
:10235000FF711A46FFF74CFD1DE03B69022B07D1C8
:10236000FB689A69FB689B6813441B88FB8206E044
:10237000FB689A69FB689B6813441B78FB827B6847
:102380001A68FB681B7FDBB21C46FB8A10461946A5
:102390002246FFF72DFDFB689A683B691A44FB68EB
:1023A0009A603DE07B681B681846FFF7DDFD034639
:1023B000002B35D07B685B6893F87C30002B07D00E
:1023C0007B681B6818464FF08041FFF785FD06E0EB
:1023D0007B681B6818464FF40051FFF72BFD00BFC8
:1023E0007B681B681846FFF737FD0346802BF7D044
:1023F000FB68002283F82020FB6800229A617B683A
:102400005B681B6F002B0BD0FB68DB7FDBB283F0BC
:102410000103DBB2002B03D07B685B681B6F98471E
:102420001C37BD4690BD00BF80B586B000AF786058
:10243000396001237B617B689B683B613B690022BB
:102440001A617B689B681B68082B01D902237B619A
:102450007B69013B1A463B6803FA02F23B69DA608A
:102460007B685B6893F87D30002B17D07B681B6816
:102470001846FFF7B3FD7B681B68184600F096F915
:102480003B69DB687868194600F058F97B681B687F
:1024900018464FF0C041FFF77BFD0BE07B681B68DF
:1024A000184600F083F97B681B6818464FF44041DA
:1024B000FFF7B0FC3B699A693B695B687868114635
:1024C0001A46FFF7D3FD0346FB73FB7B184618370C
:1024D000BD4680BD80B586B000AF786001237B61CA
:1024E0007B689B683B610023FB817B689B681B6862
:1024F000082B01D902237B617B685B6893F87D30F0
:10250000002B1DD07868796900F0B6F83B69DA686D
:102510003B691B69D21A7B685B6893F87D30013B8D
:10252000012101FA03F39A4200F2A2803B69DA68C2
:102530003B691B69D31A7868194600F0FFF897E0E9
:102540007B681B681846FFF797FC034603F40053AB
:10255000002B28D03B691A693B69DB689A4222D27A
:102560007B681B681846FEF755FE0346FB813B69F6
:102570005A693B691B691344FA89D2B21A707B69A4
:10258000022B0AD13B695A693B691B690133134429
:10259000FA89120A92B2D2B21A703B691A697B693F
:1025A0001A443B691A617B681B681846FFF764FC94
:1025B000034603F48043002B28D03B691A693B692A
:1025C000DB689A4222D27B681B681846FEF722FE1F
:1025D0000346FB813B695A693B691B691344FA89CD
:1025E000D2B21A707B69022B0AD13B695A693B69E6
:1025F0001B6901331344FA89120A92B2D2B21A70DB
:102600003B691A697B691A443B691A613B691A691B
:102610003B69DB689A422BD17B685B6893F87D301D
:10262000002B07D07B681B6818464FF0C041FFF7AE
:10263000C1FC06E07B681B6818464FF44041FEF77A
:1026400003FE3B690022DA773B69002283F82120F0
:102650003B69012283F822203B6900225A617B6892
:102660005B685B6F002B03D07B685B685B6F984790
:102670001837BD4680BD00BF80B584B000AF78601C
:1026800039607B689B68FB6000237B8147E0FB68C7
:102690001A69FB68DB689A4222D27B681B6818467D
:1026A000FEF7B8FD03467B81FB685A69FB681B692E
:1026B00013447A89D2B21A703B68022B0AD1FB68A4
:1026C0005A69FB681B69013313447A89120A92B272
:1026D000D2B21A70FB681A693B681A44FB681A6127
:1026E000FB681A69FB68DB689A4218D1FB68002214
:1026F000DA77FB68002283F821207B681B68184684
:102700004FF0C041FFF756FC7B685B685B6F002BA6
:1027100004D07B685B685B6F98470BE00AE07B68DE
:102720001B681846FFF768FC034683F00103DBB221
:10273000002BACD11037BD4680BD00BF80B584B042
:1027400000AF786039607B685B6893F87D30002B60
:1027500028D03B68002B25D07B685B6893F87D30E0
:10276000013B012202FA03F3BB607B689B681B6894
:10277000082B02D93B685B083B603A68BB689A4209
:1027800003D83B68013BFB6001E0BB68FB607B68F2
:102790001A687B685B6893F87D3010461946FA68C2
:1027A000FEF7ECFE1037BD4680BD00BF80B582B09D
:1027B00000AF78607868FEF72DFD7868FEF72AFD97
:1027C0000837BD4680BD00BF80B400AF044BDB6856
:1027D00003F4E0631B0A1846BD465DF8047B7047AE
:1027E00000ED00E080B483B000AF0346FB7197F9C1
:1027F0000730002B0BDB084997F907305B09FA79A2
:1028000002F01F02012000FA02F241F823200C37E7
:10281000BD465DF8047B704700E100E080B483B002
:1028200000AF03463960FB7197F90730002B0ADBD4
:102830000D4997F907303A68D2B29200D2B20B44F0
:1028400083F800230AE00949FB7903F00F03043BF6
:102850003A68D2B29200D2B20B441A760C37BD4617
:102860005DF8047B704700BF00E100E000ED00E090
:1028700080B489B000AFF860B9607A60FB6803F09B
:102880000703FB61FB69C3F10703062B28BF06237F
:10289000BB61FB690633062B02D9FB69013B00E0F3
:1028A00000237B61BB69012202FA03F35A1EBB6855
:1028B0001A407B699A407B69012101FA03F3591E92
:1028C0007B680B40134318462437BD465DF8047BF4
:1028D000704700BF80B483B000AF78600B46FB70D8
:1028E0001346BB70F878FB787A6806339B00134474
:1028F0005B6823F00702BB781A437968831D9B004D
:102900000B445A600C37BD465DF8047B704700BF2E
:1029100080B483B000AF78600B46FB707B685B6B64
:1029200023F07062FB78013B1B061A437B685A63F5
:102930000C37BD465DF8047B704700BF80B483B0A0
:1029400000AF78600B46FB707B685B6B23F47C12F6
:10295000FB78013B1B041A437B685A630C37BD4666
:102960005DF8047B704700BF80B485B000AFF860AD
:10297000B9607A60FB685B6923F05042BB681A4318
:102980007B681A43FB685A611437BD465DF8047BC7
:10299000704700BF80B483B000AF78600B46FB7017
:1029A0007B681B6C23F00F02FB781A437B681A6468
:1029B0000C37BD465DF8047B704700BF80B582B020
:1029C00000AF78603960786839680122FEF77EFBD5
:1029D0000837BD4680BD00BF80B582B000AF7860CB
:1029E00078680121FFF7D6FF0837BD4680BD00BFDC
:1029F00080B483B000AF78607B685B6B43F001020A
:102A00007B685A630C37BD465DF8047B704700BF96
:102A100080B483B000AF786039607B685B6923F471
:102A2000FE423B68013B9B02134343F480727B6888
:102A30005A610C37BD465DF8047B704780B584B0A1
:102A400000AFF860B9607A60F868B9687A68FFF733
:102A50008BFF1037BD4680BD80B582B000AF786077
:102A60000B46FB70FB7878681946FFF751FF083773
:102A7000BD4680BD80B582B000AF78600B46FB706C
:102A8000FB7878681946FFF759FF0837BD4680BDC7
:102A900080B582B000AF78600B46FB701346BB7008
:102AA000F878FB787A6806339B0013445B6823F060
:102AB000500343F010027968831D9B000B445A6059
:102AC000FA78BB78786811461A46FFF703FF083793
:102AD000BD4680BD80B582B000AF0023FB713F488A
:102AE0003F49FFF76BFF3D48FFF782FF3B48082156
:102AF000FFF7B2FF39484021FFF7BCFF37484FF0DE
:102B000080410022FFF79AFF34480221FFF780FF3F
:102B100034480021344AFDF741FC304800210322AB
:102B2000FFF7B6FF2D48FFF757FF30480921304A1D
:102B3000FDF734FC2D4808212E4AFDF72FFC2B48C9
:102B400007212D4AFDF72AFC24484FF48021FEF787
:102B500003FB224810210222FEF728FD1F48102106
:102B600004220123FEF7B8FC1C4810210122FEF7C5
:102B700039FD1A48002104220023FEF7D5FC17482E
:102B800010210022FEF74CFD144813210022FEF70D
:102B900047FDFFF719FE034618463F210022FFF7C5
:102BA00067FE03465B201946FFF738FE5B20FFF700
:102BB00019FEFFF709FE034618463E210022FFF7E3
:102BC00057FE03465A201946FFF728FE5A20FFF702
:102BD00009FEFB7918460837BD4680BD0002024851
:102BE00060C8FF1F0080024888C9FF1F008102489B
:102BF0004CC8FF1F80B800089CB8000880B500AF23
:102C00000148FFF72DFB80BD90C8FF1F80B500AFC6
:102C10000148FFF75FFC80BD90C8FF1F80B400AF84
:102C2000044BDB6803F4E0631B0A1846BD465DF8FD
:102C3000047B704700ED00E080B483B000AF034632
:102C4000FB7197F90730002B0BDB084997F9073028
:102C50005B09FA7902F01F02012000FA02F241F842
:102C600023200C37BD465DF8047B704700E100E08F
:102C700080B483B000AF03463960FB7197F9073029
:102C8000002B0ADB0D4997F907303A68D2B292005F
:102C9000D2B20B4483F800230AE00949FB7903F020
:102CA0000F03043B3A68D2B29200D2B20B441A76B8
:102CB0000C37BD465DF8047B704700BF00E100E0C3
:102CC00000ED00E080B489B000AFF860B9607A60D0
:102CD000FB6803F00703FB61FB69C3F10703062BE5
:102CE00028BF0623BB61FB690633062B02D9FB69AB
:102CF000013B00E000237B61BB69012202FA03F380
:102D00005A1EBB681A407B699A407B69012101FA0F
:102D100003F3591E7B680B40134318462437BD4606
:102D20005DF8047B704700BF80B582B000AF78606B
:102D30007B681B785BB21846FFF77EFF0837BD46FD
:102D400080BD00BF90B583B000AF78607B681C7811
:102D5000FFF764FF01467B685B781A467B689B78C7
:102D6000084611461A46FFF7ADFF024663B2184601
:102D70001146FFF77DFF7B68DB78002B02D0786877
:102D8000FFF7D2FF002318460C37BD4690BD00BFA9
:102D900080B500AF05484FF4805104F0FFF9802062
:102DA00004F006FA024802F075FE80BD9CC9FF1FC0
:102DB0009CB9000880B400AFBD465DF8047B704745
:102DC00080B582B000AF03460A46FB711346BB7163
:102DD000FB79184600F0CEF9BB79184600F0F2F9FD
:102DE0000837BD4680BD00BF80B500AF062000217A
:102DF000FFF7E6FF05200021FFF7E2FF0420032193
:102E0000FFF7DEFF04200021FFF7DAFF3B2000215F
:102E1000FFF7D6FF02200121FFF7D2FF0320902108
:102E2000FFF7CEFF80200021FFF7CAFF0820012115
:102E3000FFF7C6FF09200121FFF7C2FF0A20012189
:102E4000FFF7BEFF0B200A21FFF7BAFF0C200A2173
:102E5000FFF7B6FF0D200A21FFF7B2FF1020462131
:102E6000FFF7AEFF11203821FFF7AAFF12203A2109
:102E7000FFF7A6FF13200021FFF7A2FF1420312146
:102E8000FFF79EFF0F200021FFF79AFF1620662113
:102E9000FFF796FF17200021FFF792FF18209F21D0
:102EA000FFF78EFF19200021FFF78AFF1A207F21EC
:102EB000FFF786FF20200021FFF782FF212000215D
:102EC000FFF77EFF28207F21FFF77AFF29200021CE
:102ED000FFF776FF2E200021FFF772FF2F20002141
:102EE000FFF76EFF31200021FFF76AFF322000213B
:102EF000FFF766FF33200021FFF762FF34209F2198
:102F0000FFF75EFF35200021FFF75AFF36207F21B3
:102F1000FFF756FF06200121FFF752FF80BD00BFDB
:102F200080B5A0B000AF07F1140368221846002155
:102F300008F092FC3B4600221A60043300221A601B
:102F4000043300221A60043300221A600433002282
:102F50001A600433164817490022002302F04CFD82
:102F6000F8670020A021802202F0DCFA0020A021D6
:102F7000802202F0BFFA104B7B61104BBB61104BFB
:102F80003B62104B3B6307F11403F86F19460E4A7E
:102F90000E4B02F07FFA0023BB606023BB813B46EF
:102FA000F86F194602F042FA8037BD4680BD00BF77
:102FB00088D10008ECD1000875310008C53100083F
:102FC000153200087D320008293900081D4D00081F
:102FD00080B586B000AFF860B9607A60BB68012B3D
:102FE00003D1FFF701FF002303E04FF0FF337B61C4
:102FF0007B6918461837BD4680BD00BF80B483B0DA
:1030000000AF78600B46FB70FB7801229A407B682A
:103010005A600C37BD465DF8047B704780B483B0BE
:1030200000AF78600B46FB70FB784FF480329A401B
:103030007B685A600C37BD465DF8047B704700BF63
:1030400080B483B000AF78607B689B6C18460C3707
:10305000BD465DF8047B704780B483B000AF7860F4
:1030600039607B68DA6C3B681A437B68DA640C373A
:10307000BD465DF8047B704780B582B000AF7860D4
:1030800039607B681B681846FFF7DAFF02463B6829
:10309000134018460837BD4680BD00BF80B582B0DA
:1030A00000AF786039607B681B6818463968FFF7A5
:1030B000D3FF0837BD4680BD80B584B000AF7860CF
:1030C0000023FB737B681B681846FEF757FE034618
:1030D000FB73FB7B002B23D17B685B681846FEF7F4
:1030E000B5FF0346FB73FB7B002B10D17B689B680D
:1030F00059687B689B681A7A7B689B681B680846DE
:1031000011461A46FDF74AF90023FB7301E001233B
:10311000FB737B681B7B002B04D002F0D9FC01E021
:103120000123FB73FB7B18461037BD4680BD00BFF3
:1031300080B582B000AF0346FB710D484FF480515B
:10314000FFF7ACFF0A4B1A68FB799BB21046194691
:103150000022FEF729F800BF05484FF48051FFF721
:103160008BFF0346B3F5805FF6D10837BD4680BDBF
:1031700090C8FF1F80B582B000AF0346FB710F4BB4
:103180005A680E4B1B7A10461946FFF747FF0C4B47
:103190001A680B4B5B681B6D1B6910461946FDF7DF
:1031A000DBFFFB791846FFF7C3FF054B1B6818468A
:1031B000FDF7E8FF0837BD4680BD00BF4CB90008E9
:1031C00090C8FF1F80B582B000AF0346FB710F4B64
:1031D0005A680E4B1B7A10461946FFF70FFF0C4B2F
:1031E0001A680B4B5B681B6D1B6910461946FDF78F
:1031F000B3FFFB791846FFF79BFF054B1B6818468A
:10320000FDF7C0FF0837BD4680BD00BF4CB90008C0
:1032100090C8FF1F80B584B000AF78603960154B4F
:103220005A68144B1B7A10461946FFF7E7FE124BFB
:103230001A68114B5B681B6D1B6910461946FDF738
:103240008BFF7B681B78FB73FB7B1846FFF770FFD7
:103250007B6801337B603B68013B3B603B68002B34
:10326000EFD1054B1B681846FDF78CFF1037BD46A4
:1032700080BD00BF4CB9000890C8FF1F80B582B068
:1032800000AF78603960084B5A68074B1B7A1046CC
:103290001946FFF7B3FE3B68044879681A46FEF703
:1032A000FFFE0837BD4680BD4CB9000890C8FF1F1F
:1032B00080B483B000AF78607B684FF48072DA60CE
:1032C0000C37BD465DF8047B704700BF80B582B007
:1032D00000AF78607B685B7B83F00103DBB2002B7F
:1032E0000FD07B689A687B681B7B10461946FDF7F8
:1032F00015FE7B689B681846FFF7DAFF7B680122A2
:103300005A73002318460837BD4680BD80B485B087
:1033100000AF78607B6803F00703FB600C4BDB6851
:10332000BB60BA684FF6FF031340BB60FB681A022C
:10333000BB68134343F0BF6343F40033BB60044AEC
:10334000BB68D3601437BD465DF8047B704700BF8F
:1033500000ED00E080B582B000AF0120FFF7D6FF9E
:1033600072B6214B214A9A60BFF34F8F62B61E4A54
:103370001D4BD3F8883043F47003C2F888301C4BDF
:1033800003F5805314331B687B607B6823F00F03C5
:103390007B607B6843F002037B60154B03F5805331
:1033A00014337A681A60104A0F4B5B6923F01003DC
:1033B00053610D4A0C4B5B6923F0080353610A4AC1
:1033C000094B5B6A23F480335362074A064B5B6AFE
:1033D00023F400335362044A034B5B6A23F48023D3
:1033E00053620837BD4680BD00ED00E000000008D4
:1033F0000010005880B485B000AF78600023FB73E4
:103400007B6801221A70FB7B18461437BD465DF8B5
:10341000047B704780B400AF024B1846BD465DF890
:10342000047B7047001BB700B0B586B000AF114BEE
:103430003C1D1D460FCD0FC42B6823603B1D184655
:10344000FDF7A0F80020FDF7C5F90020FDF77AF997
:103450000420FDF74BFAFDF7C1FA01202021FDF70A
:10346000CDFA0020FDF782F90120FDF753FA183755
:10347000BD46B0BD58B9000880B582B000AF00238A
:10348000FB711148FFF7B6FF0346FB71FB79002B78
:1034900004D10E48FFF710FE0346FB71FB79002BA9
:1034A00004D10B48FEF78AF90346FB71FB79002B28
:1034B00004D10848FFF746FC0346FB71FB79184628
:1034C0000837BD4680BD00BF9CD9FF1F9CC8FF1FA9
:1034D00020C8FF1F3CB9000880B582B000AFFFF7DD
:1034E000CBFF0346FB71FB79012B00D1FEE702F015
:1034F000D7FA0E4802F046F96FF07F4002F04CF91F
:103500000B4850211E2202F049F90A4B1B78002B70
:103510000BD06FF07F4002F03FF9074B1B68184655
:1035200050213C22012302F019F9EEE7B4C0000853
:103530006CB90008A0D9FF1FBCC8FF1F80B400AF42
:10354000094B1B680133084A1360074B1B680A2BA1
:1035500002D1054B00221A60044B01221A70BD46AD
:103560005DF8047B704700BFBCC8FF1FA0D9FF1FD8
:10357000F8B5436B04460E461546E3B9D0F88C20E7
:1035800020219047E16AD4F89030721891B2204619
:10359000984720462121D4F88C309847206BD4F8E6
:1035A00090302918204689B29847D4F88C302046AC
:1035B00022219847F8BDD0F80071B8472A46314615
:1035C0000746D4F804512046A847D4F88C20064674
:1035D000202120469047E56AD4F89030791920469A
:1035E00089B2984720462121D4F88C209047206B3F
:1035F000D4F890303118D5E72DE9F047476B089E95
:103600000446884691461D46002F75D0D0F80071BB
:10361000B847324607462946D4F800312046984735
:103620004A4682464146D4F80431204698473246FD
:103630008046D4F804312946204698475745CABFEA
:1036400056463E46BA468045CCBF8146C1460546F1
:10365000D4F88C20C8BF4546204619219047206BDE
:10366000D4F8903009EB000189B220469847D4F88D
:103670008C2020461A219047206BD4F890302918CE
:1036800089B220469847D4F88C20204617219047CD
:10369000E06AD4F89030311889B220469847D4F8BF
:1036A0008C20204618219047E06AD4F890300AEB2D
:1036B000000189B220469847D4F88C20204620216A
:1036C0009047E06AD4F89030391889B2204698477C
:1036D00020462121D4F88C209047206BD4F89030DC
:1036E00008EB000189B220469847D4F88C20204688
:1036F00022219047BDE8F0871921D0F88C309847F7
:10370000216BD4F890201FFA89F909EB010399B2D3
:1037100020469047D4F88C2020461A219047206BF1
:10372000D4F89030311889B220469847D4F88C20CC
:10373000204617219047E06AD4F890301FFA88F8A5
:1037400008EB000189B220469847D4F88C20204627
:1037500018219047E06AD4F89030291889B22046A1
:103760009847D4F88C20204620219047E06AD4F86E
:10377000903008EB000189B220469847204621216D
:10378000D4F88C209047206BD4F8903009EB0001DE
:1037900089B220469847A8E730B54DF24013C0F6ED
:1037A0000003044683B059681868D4F88C206D462D
:1037B00003C5204616219047606BA38CD4F8905027
:1037C00002A90A1823F00700030412F8081C1A0CB7
:1037D00020461143A84703B030BD00BF10B5016AB1
:1037E000D0F8283182B00446023168469847236AEF
:1037F000A26A1DF8030000A9CB18597841EA0020FD
:10380000104002B010BD00BF10B5016AD0F84831B9
:1038100084B00446023168469847236AA26A3DF89C
:10382000130000A901EB4303598841EA004010400E
:1038300004B010BD10B5044684B0216AD4F84831F4
:1038400001A801319847206A04AA02EB400131F82F
:103850000C0C04B010BD00BF38B504460D46080A74
:10386000D4F80C319847D4F80C11E8B2884738BD29
:1038700038B50446080A0D464000D4F82C31984764
:10388000E9B2D4F82C214800904738BD08B5D0F8EB
:103890002C310846984708BD38B504460D46080A3D
:1038A000D4F810319847D4F81011E8B2884738BDE1
:1038B00038B50446080A0D464000D4F83031984720
:1038C000E9B2D4F830214800904738BD08B5D0F8A7
:1038D00030310846984708BD092912D0102909D06F
:1038E000082900D070470A4B0A49C0F88C30C0F84C
:1038F00090107047084A094BC0F88C20C0F89030EF
:1039000070470749074AC0F88C10C0F890207047EC
:1039100059380008993800088D380008CD3800085B
:1039200071380008B138000810B5044601F062FD96
:10393000A368DA8C43F2715122F0030043F2F9528A
:10394000C0F60001C0F60002C3F8AC10C3F8A8200E
:1039500043F2997143F2DD72C0F60001C0F6000235
:10396000C3F8B010C3F8B82043F6090143F6350296
:10397000D88443F6D900C0F60001C0F60002C0F6B4
:103980000000C3F8BC10C3F8B420C3F8940010BD05
:1039900008B5D0F8B830984708BD00BF08B5C1F3E6
:1039A000072380F8713080F87210D0F818210221B6
:1039B0007130904708BD00BF2DE9F04FB24D89B07E
:1039C0002C680790207C079E0591C007B4681646B6
:1039D00040F15C811298824200F30B815F1A07F17B
:1039E000010B5D46894617469B46D4F8C860D4F85B
:1039F0006C80002E00F009818DE880010798059900
:103A00003A465B46B047002D00F0AD80C8F3400158
:103A1000A94228BF2946012D98BF2946238D002998
:103A200000F0C78142464FF0010C32F8020B5840BB
:103A30004E1E22F8020C681E614506EA0C069646E8
:103A40001FD956B132F8026B4FF0020C5E400138BC
:103A5000614522F8026C964613D9B2F800E016468A
:103A60008EEA030E26F802EBB2F802E00CF1020C2B
:103A7000B21C02388EEA0306614522F8026C9646B3
:103A8000EBD88D426FD06A1A4FEA520C4FEA4C06BF
:103A900006920496BCF1000F41D0002658F8112080
:103AA00063F30F060CF1FF3A63F31F46CDF80CA049
:103AB000724008EB410A4FF0010948F811200399C0
:103AC000E14501EA09020AF104011FD242B10A6884
:103AD0004FF002097240E1458A4641F8042B15D2A5
:103AE0000393DAF804300A4686EA030842F8048BA6
:103AF000DAF8083009F1020986EA0308C1F80480FF
:103B0000111DE1450AF1080AEBD3039B049EDDF881
:103B10001890B145C6EB00000EEB460E23D0BEF860
:103B20000010724659400EEB400022F8021BCEEB0B
:103B3000000EAEF102068242C6F3400113D029B155
:103B400016885E4022F8026B82420CD0168811461D
:103B50005E4021F8026B56880A4686EA030122F885
:103B6000021B8242F2D10097D4F8A86005993A4628
:103B70005B462046B0470021EA07E66EA36E884602
:103B800013D536F8022B0121100A18705A70884696
:103B900002330AE036F8023B411C5370180A931CAA
:103BA000FA29107028D008F10108481C454503F196
:103BB000020208F1010811D036F8021BFA284FEA78
:103BC000112C83F800C05970E4D1D4F81821A06EEC
:103BD0004FF4FA719047A26E0020DBE721B1D4F8D0
:103BE0001831A06E49009847129E0137BE42BFF6B9
:103BF000FCAE09B0BDE8F08F4FF4FA71D4F818218B
:103C0000A06E9047A36E0021CDE7059959453FF777
:103C1000FAAE3A46D4F8EC300798C1EB0B06984759
:103C2000059A28F8020B02F10109CB4506F00106BE
:103C300026DB5EB14946D4F8EC3007983A469847FF
:103C400009F10109CB4528F8020B19DB079E49460B
:103C50003A46D4F8EC3030469847C24609F101099B
:103C60002AF8020B4946D4F8EC3030463A469847D9
:103C700009F10109CB45A8F802000AF10208E6DAC9
:103C8000D4F86C80BFE600BF08C8FF1F12985F1A07
:103C90000090C2EB000ED4F8A86020460137894698
:103CA0000EFB0777B0472A68A36ED16B0868C0F394
:103CB0000726C0B2002F9CD0F92F34BFB8464FF072
:103CC000F9084FEA580E03F1010908F1FF3A4FEAEB
:103CD0004E0CBEF1000F6AD019F0030F14BF002282
:103CE0000122B8F1010F94BF002202F0010282F01C
:103CF0000105002A5BD066F3070560F30F250EF17E
:103D0000FF31012266F3174560F31F6501EA020BDC
:103D1000591D7245C9F8005010D2BBF1000F05D0F3
:103D2000022272450D6003F1090107D20B460232EF
:103D300043F8045B4D60191D7245F7D3E04509EB6C
:103D40004C02CCEB0A0A28D0151D05EB4A010232C1
:103D50008B1A9D1E931C8B4202F8026C02F8010C18
:103D6000C5F3400519D035B103F8026C03F8010C16
:103D700002338B4211D01A4603F8026C03F8010C8F
:103D800002F8026B931C8B4202F8010CF3D104E0A1
:103D9000F92F34BFB8464FF0F9084FEA4801D4F87C
:103DA000183148469847B7EB0807F1D121E74A4652
:103DB000CAE7C646284666E62DE9F04F93B01D9C3B
:103DC0000791661E069606990C9080681C9D0993C3
:103DD000012916460D9040F2DA82042C00F0D782B9
:103DE000082C00F0D482079A209B09987419D118E6
:103DF000013C0D9A00940B18D2F8A8401046013BE4
:103E00003246A047002D3ADD079C04962098099E73
:103E10001F9A2318711E10910E93161B0499109C63
:103E20000E9805964D1923180B951193059A079E28
:103E3000069994190F2917D8DFE811F024027101AF
:103E40001600BF00160016001600560016001600D9
:103E500016001600160016001600240021B1D5F831
:103E60001861A86E4900B047049905981E9A4E1C27
:103E70000496049E0B9983188E420593D6D113B0F5
:103E8000BDE8F08F0D9D099FAB6E0021FD070A462E
:103E900000F18682DDF83480561C4D1CBA4203F1D5
:103EA000020018D034F81220110AFA2D19705A7035
:103EB00000F0818234F81630691C1A0A4370831CA2
:103EC000FA29027000F05782721C561C4D1CBA422F
:103ED00003F10200E6D10029C6D00D9A4900D2F8BC
:103EE0001831906E9847BFE70C9E2198B56800285E
:103EF000BAD04CF60803C1F6FF7319680A7C12F0B9
:103F0000030640F06382099E002EADDDA046079FA8
:103F100018F8012B2199D5F8183151F82220F01901
:103F2000059E85F872208719C2F3072005F17106F6
:103F3000E44385F87100022130463C199847B845A2
:103F400004F0010490D094B118F8012B2199D5F810
:103F5000183151F82200C0F3072285F872000221BF
:103F600085F8712030469847B8453FF47DAFDDF8BD
:103F700084904446304614F8011BD5F8183159F89E
:103F80002120C2F3072C022185F871C085F8722028
:103F9000984798F80100D5F8183159F82020C2F355
:103FA000072185F8711085F872200221304604F14E
:103FB00001089847B845DCD156E70C9D219EAD68B5
:103FC000002E3FF451AF4CF60800C1F6FF70059A81
:103FD0000368079993F810B012F801901BF0030BD7
:103FE00040F05982209FC7F10106B100C1F10400E1
:103FF000F02747FA00F202EA090323FA01F12198B7
:10400000D5F8183150F82120099985F87220C2F3AB
:104010000720209A85F8710005F1710601F1FF383B
:1040200002F1010A022130469847BAF1020F08F066
:10403000010800F09485099BB3F1010B3FF414AF24
:10404000B8F1000F22D0CAF101008100C1F10402D1
:1040500047FA02F303EA09022198D5F8183122FA47
:1040600001F20AF1010A50F82220C2F3072185F873
:10407000711085F87220022130469847BAF1020F7C
:1040800000F00686BBF1010B3FF4EEAEDDF8848054
:104090001FE0CAF101029300C3F1040247FA02F2E1
:1040A00002EA090222FA03F20AF1010A58F8222070
:1040B000D5F8183185F87220C2F3072E85F871E023
:1040C0009847BAF1020F00F0F683BBF1010B3FF401
:1040D000CBAECAF101039800C0F1040247FA02F125
:1040E00001EA090323FA00F0D5F8183158F8202026
:1040F000C2F30721304685F8711085F8722002213D
:1041000098470AF1010A02218A4530460BF1FF3B2C
:10411000BFD194F801904FF0000A0134B9E70C9D2B
:10412000219EAD68002E3FF49FAE4CF60800C1F60C
:10413000FF70059B0168079A91F810C013F8029070
:104140001CF0030B40F02E82209FC7F10306710084
:10415000C1F10600C02747FA00F202EA090323FA78
:1041600001F12198D5F8183150F82120099985F8E6
:104170007220C2F30720209A85F8710005F17106BC
:1041800001F1FF3802F1010A022130469847BAF1E5
:10419000040F08F0010800F0ED84099BB3F1010B56
:1041A0003FF462AEB8F1000F22D0CAF10300410023
:1041B000C1F1060247FA02F303EA09022198D5F891
:1041C000183122FA01F20AF1010A50F82220C2F352
:1041D000072185F8711085F8722002213046984732
:1041E000BAF1040F00F05B85BBF1010B3FF43CAE6C
:1041F000DDF884801FE0CAF103025300C3F1060218
:1042000047FA02F202EA090222FA03F20AF1010A6B
:1042100058F82220D5F8183185F87220C2F3072EFD
:1042200085F871E09847BAF1040F00F03E83BBF1C6
:10423000010B3FF419AECAF103035800C0F10602A6
:1042400047FA02F101EA090323FA00F00AF1010A30
:1042500058F82020D5F8183185F87220C2F30721CC
:10426000304685F87110022198470221BAF1040FF7
:1042700030460BF1FF3BBED194F801904FF0000A9D
:104280000134B8E74CF60805C1F6FF750C9E2868A6
:10429000219B017CB56893E8440001F003000228EB
:1042A0000A9600F08982032800F00882012800F0B5
:1042B0000582099F209E21784FF08008781E48FAD9
:1042C00006F31FFA82F90A9A00F00100194205F17B
:1042D00071071FFA82FB089040F0EE814946209A50
:1042E00085F872100E0A85F871600221561CD5F807
:1042F000183138469847082E00F0EB840998B0F141
:10430000010A3FF4B1AD0899B9B1227848FA06F331
:104310001A422ED05846010A85F8711085F87200AD
:104320000221D5F81821384601369047082E00F0B2
:10433000B982BAF1010A3FF497AD2078D5F8182177
:1043400048FA06F3184214BF5B464B46190A85F833
:10435000711085F872300221384601369047082ED8
:1043600000F0AF82207848FA06F318420AF1FF3ACB
:10437000D0D14846CFE74FF4FA71D8F81851D8F8A1
:104380006800A847D8F868300021721C9DE5B74B3B
:104390001A68107C00F0030102297FF424AD31E596
:1043A000605ADDF834805870020A01211A70099FA2
:1043B00002330A4670E5D8F81851D8F868004FF46F
:1043C000FA71A847D8F86800002573E5022E7FF43B
:1043D0004BAD079CD5F86CA008944FF00008AB4695
:1043E000099FDDF8149045460EE015B9DBF86CA086
:1043F0000894219D55F826002AF8020B08F10108BF
:1044000001250134013F0AD019F80460002EECD1D7
:10441000012D00F0F7820134013F3546F4D1109AA6
:10442000079B5D46D318B8F1000F3FF41DAD049E05
:1044300008990096DBF8A84058463246A04718F085
:10444000010FDBF86C40DBF86830394607D034F8F0
:10445000027B390A197001215F7002330F46481C34
:10446000474503F1020207F101073FF4F7AC34F8C6
:10447000021B0E0AFA281E70597000F0EE8334F801
:10448000026B411C931C300AFA291070567000F020
:104490005C830137E3E7BBF1020F7FF4E5ACEE6E1E
:1044A0000E9808964FF0000C0A940F90209EDDF8AD
:1044B0002480DDF838A0E346644616E01CB9EC6EB3
:1044C000CDF83CA008942198089B50F82C2023F8A4
:1044D000022B0BF1010B089301240136022E0AF185
:1044E000010A18D0B8F101081FD0C6F101039A00E3
:1044F000F020C2F1040140FA01FC0CEA090333FA8E
:1045000002FCDBD1012C00F02E820136022E644623
:104510000AF1010AE6D10A9E0A9996F80190481C10
:104520000026B8F101080A90DFD1BBF1000F3FF47B
:104530009BAC049A0F990092D5F8A840119BCDF836
:104540000CB02846A047DDF80CC0EC6EAB6E1CF03A
:10455000010F414640F0518366460BE034F8023BC0
:10456000411C5370180A931CFA29107000F08783BD
:1045700008F10108481CB04503F1020208F10108E6
:104580003FF46CAC34F8021B0F0AFA281F70597004
:10459000E4D1A86ED5F818314FF4FA719847AA6E95
:1045A0000020DBE7BBF1020F7FF45EACEE6E0E99EC
:1045B00008964FF000000A940F91209EDDF82480A9
:1045C000DDF838A08346044616E01CB9EC6ECDF841
:1045D0003CA008942198089B50F82C2023F8022B2B
:1045E0000BF1010B089301240136042E0AF1010A94
:1045F00018D0B8F101081FD0C6F103035A00C2F168
:10460000060CC02040FA0CF101EA090333FA02FC5F
:10461000DBD1012C00F058810136042E64460AF1EA
:10462000010AE6D10A9E0A9996F80190481C0026D4
:10463000B8F101080A90DFD1BBF1000F3FF414ACD0
:10464000049A0F990092D5F8A840119BCDF80CB0B0
:104650002846A047DDF80CC0EC6EAB6E1CF0010FD5
:10466000414640F0C08266460EE000BF08C8FF1F0A
:1046700034F8023B411C5370180A931CFA2910703D
:1046800000F0F48208F10108481CB04503F1020271
:1046900008F101083FF4E2AB34F8021B0F0AFA28D4
:1046A0001F705970E4D1A86ED5F818314FF4FA7123
:1046B0009847AA6E0020DBE7594610E62099099E2C
:1046C00027784FF0800B4BFA01F206F1FF3A1742C0
:1046D0000AF0010640F0EA8220980E9A471C082F43
:1046E00002F1010800F0F282099BB3F101093FF4E5
:1046F000BBAB7EB126784BFA07F10E4240F0ED825B
:104700000137082F08F1010800F0FC82B9F1010916
:104710003FF4AAABC446A8460C9D0FE0082E2CD04F
:1047200022784BFA06F002422ED1771C082F0AF1AC
:10473000010C3ED0B9F101093FF496AB20784BFA59
:1047400007F17E1C08420CF1010A09F1FF39E5D09E
:104750006146D8F8EC70049ACDF80CC02846B847EA
:10476000D8F82830DDF80CC0D8F8F070049A43402F
:1047700061462846B847082ED2D101340026227857
:104780004BFA06F00242D0D05146049AD8F8EC30E9
:1047900028469847D8F82810D8F8F070049A80EA8C
:1047A000010351462846B847771C082F0AF1010C2F
:1047B000C0D101340027BDE7EE6E0E9A08964FF087
:1047C000000AAC4625460F92DDF82480209EDDF8D5
:1047D00038905446AB4618E024B9DCF86C50CDF85C
:1047E0003C90089508980A9A20F8022B0AF1010AD1
:1047F000089001240136082E04BF0BF1010B00269E
:10480000B8F1010809F101090BD080239BF80000E1
:10481000334110EA0305DFD1012C00F03A812C4628
:10482000E8E76546BAF1000F3FF41EAB049B0F9911
:104830000093DCF8A8401A466046119BA0471AF086
:10484000010FEC6EAB6E414614D034F8020B010A36
:10485000197001215870884602330BE034F8026B5E
:10486000411C931C300AFA291070567000F04D82DA
:1048700008F10108481CD04503F1020208F10108C3
:104880003FF4ECAA34F8021B0E0AFA281E70597085
:10489000E4D1A86ED5F818314FF4FA719847AA6E92
:1048A0000020DBE70134002643E594F801904FF047
:1048B000000A0134BBE494F801904FF0000A01347F
:1048C00003E4013400264DE5049F0F990097D5F8C5
:1048D000A870049ACDF80CC00AF1FF332846B847F7
:1048E000DDF80CC0EF6EAB6E1BF0010F614629D0F6
:1048F00037F8022B2146100A4FF0010C18705A703D
:10490000481C0233DC4503F102020CF1010420D102
:10491000002940F053818B460C4665E6D5F81821F6
:10492000A86E4FF4FA719047AA6E002037F8023B48
:10493000411C5370180A931CFA29107000F0728100
:1049400004F1010C481CDC4503F102020CF10104E6
:10495000DED037F8021BFA284FEA112E83F800E068
:104960005970E3D1DAE7049F0F990097D5F8A87042
:10497000049ACDF80CC00AF1FF332846B847DDF899
:104980000CC0EF6EAB6E1BF0010F614629D037F8FB
:10499000022B110A19704FF0010C21465A70481C65
:1049A0000233DC4503F102020CF1010420D100299D
:1049B00040F0F1808B460C468FE5D5F81821A86EA3
:1049C0004FF4FA719047AA6E002037F8023B411C61
:1049D0005370180A931CFA29107000F02C8104F10E
:1049E000010C481CDC4503F102020CF10104DED08D
:1049F00037F8021BFA284FEA112E83F800E05970AD
:104A0000E3D1DAE7049808990090631E049A0396AC
:104A10005846DBF8A860B047DDF80CC0DBF86C2026
:104A2000DBF8683018F0010F614600F0AE8032F814
:104A3000021B080A59701870294602334FF001060C
:104A40001546481C464503F1020206F101061AD03C
:104A500035F8021BFA284FEA112E83F800E059704E
:104A600000F0D58035F8023B411C5370180A931CA6
:104A7000FA29107053D00136481C464503F1020252
:104A800006F10106E4D1002940F08E8088460D46EB
:104A9000B7E4049A0F990092DCF8A870CDF80CC026
:104AA000604609F1FF33B847DDF80CC01AF0010F7A
:104AB000DCF86C70DCF86830294669D037F8020BF6
:104AC000010A197058702146023301246546481CBA
:104AD000544503F1020204F101041AD037F8021B15
:104AE000FA284FEA112E83F800E0597000F0AC80EC
:104AF00037F8023B411C5370180A931CFA291070B6
:104B000019D00134481C544503F1020204F1010498
:104B1000E4D1AC4600295AD18A460C466AE64FF4E5
:104B2000FA71DBF81821DBF8680090470136DBF8F2
:104B300068300021A0E74FF4FA71D5F81821A86E6B
:104B400090470134AB6E0021DCE74FF4FA71D5F8E1
:104B50001821A86E90470137AB6E00217FE4099BB6
:104B600094F80190DA460134B3F1010B7FF468AA9E
:104B7000FFF77AB9099B94F80190DA460134B3F152
:104B8000010B7FF40FABFFF76FB91546664658E788
:104B90002C4665469BE7D5F81831A86E49004FF0C2
:104BA000000B98475C4698E4DBF81831DBF86800A6
:104BB00049004FF000089847454622E4D5F81831DF
:104BC000A86E49004FF0000B98475C460CE5D5F8FD
:104BD0001831A86E039549004FF0000A98475446D3
:104BE000DDF80CC006E634F8026B310A19700121B9
:104BF0005E7088460233664646E534F8026B310A39
:104C0000197001215E70884602336646B2E4DBF813
:104C10001821DBF868004FF4FA719047DBF8682040
:104C200000201FE74FF4FA71D5F81821A86E9047BD
:104C3000AB6E002184E64FF4FA71D5F81821A86E06
:104C40009047AB6E0021CAE6D5F81821A86E4FF444
:104C5000FA719047AA6E00204AE7A86ED5F818317D
:104C60004FF4FA719847AA6E002008E44FF4FA71E5
:104C7000D5F81821A86E9047AB6E002102E54FF4DD
:104C8000FA71D5F81821A86E9047AB6E00216FE439
:104C900094F801904FF0000A0134FFF7F3B994F84B
:104CA00001904FF0000A0134FFF79EBA0E99049A62
:104CB000D5F8EC300C989847A96AD5F8F070049AAA
:104CC00080EA01030E990C98B84705E501340027E6
:104CD0000AE501340026FFF711BB4146049AD5F8D6
:104CE000EC300C989847AA6AD5F8F06080EA020385
:104CF00041460C98049A0137B047082F08F1010883
:104D00007FF404AD0134002700E54FF4FA71D5F8C3
:104D10001821A86E9047AB6E0021A9E510B5044696
:104D200000F068FBA468D4F8C820D4F89430C4F824
:104D3000FC2043F6B95043F6B91145F23532C0F6BE
:104D40000000C0F60001C0F60002C4F8E400C4F898
:104D5000E810C4F8EC2045F29D2043F6911143F68B
:104D60009D12C0F60000C0F60001C0F60002C4F8B3
:104D7000F000C4F8A0102046C4F8A42008219847E9
:104D80004DF204201023C0F60000A363606410BD40
:104D9000084670470068411A481E70470846704729
:104DA0000068411A481E7047104670474068811AD3
:104DB000481E7047104670474068811A481E704769
:104DC00010467047104670474068811A481E704769
:104DD0004068811A481E7047084670470846704769
:104DE0000068411A481E70470068411A481E704703
:104DF00010B58468D4F8F040A04710BD08B58368AA
:104E0000D3F8EC30984708BDF0B5856883B0D5F885
:104E1000EC3004460F46164698470190DDF804E052
:104E2000A068AB6AD0F8F0503946204632468EEA88
:104E30000303A84703B0F0BD10B582B084680092A8
:104E4000D4F8E840A04702B010BD00BF10B582B052
:104E500084680093D4F8E8400B46A04702B010BD28
:104E600030B583B08568069C0094D5F8E840A0472B
:104E700003B030BD30B587B085680A9C00940B9CA8
:104E800001940C9C02940D9C03940E9C04940F9C22
:104E90000594D5F8E440A04707B030BD704700BF87
:104EA00070B582B08568079C24B10D4C206848B16C
:104EB00002B070BD0A4B1A68002AF9D0C5F8A820C4
:104EC0001C60F5E7069E0096D5F8A8602846B04716
:104ED000D5F8A810034B2160C5F8A830E8E700BF5B
:104EE000C0C8FF1F9D4E0008026C08B5D0F8D43032
:104EF0009069984708BD00BF026C08B5D0F8D8305B
:104F00009069984708BD00BF2DE9F04383B08468DD
:104F10000A9D00952046D4F8A860914698460F4611
:104F2000B047226CD4F8DC3090690B99C9EB0505C9
:104F3000C7EB08076A1C07FB0222984703B0BDE8CD
:104F4000F08300BF2DE9F04383B084680A9D00958B
:104F50002046D4F8A860914698460F46B047226C88
:104F6000D4F8E03090690B99C9EB0505C7EB080749
:104F70006A1C07FB0222984703B0BDE8F08300BF1C
:104F8000013917290FD8DFE801F0100E0E0E0E0EB2
:104F90000E0E0E1517191B0E0E0E0E0E0E0E0E20F7
:104FA000220C0D4870470020704703689868D0F8BD
:104FB000FC00704709487047094870470948704726
:104FC00002689168D1F8F400704707487047036899
:104FD0009868D0F8F8007047A14E0008DD5000082E
:104FE0005D520008E55100081D5100080139806834
:104FF0000D291FD8DFE801F0212325271E1E1E29B9
:105000000E0C0C07171020B1426B12F0010000D0FB
:1050100001207047002070470028FAD0436B13F03E
:105020000400F5D170470028F3D0406B10F0020067
:10503000EED170474FF0FF3070470068704740680E
:10504000704780687047C0687047806B704700BFCA
:10505000836801290CBF586C00207047836893E86F
:10506000050000230138013A0B804B808880CA80FC
:10507000704700BFF0B44DF24815C0F600052E464B
:1050800007460FCE90B06C460FC496E80F0020354F
:1050900084E80F000FCD08AC0FC495E80F007E6BBD
:1050A0000DF1400C0CEB860584E80F0055F8403CF0
:1050B00055F8200CC7F80031C7F8040110B0F0BC57
:1050C000704700BF00B583B08DE8060080690321FA
:1050D0006A46FDF77DFF03B000BD00BFF8B58468E8
:1050E00005460F46164614B1A760E660F8BD4FF4BA
:1050F000BA7001F057FF2146A8604FF4BA7200F071
:1051000041FAAB6804491D6402220120DA84186266
:10511000C3F80811AC68E7E775500008F8B5846873
:1051200006460D46174604B3262D11D0272D00D074
:10513000F8BDA36B102B37D0122BF9D1002F3CD028
:10514000234AC4F8E070C4F8CC20C4F8D020F8BDDD
:10515000A16B102920D01229EAD11E4BC4F8D870B7
:10516000C4F8BC30C4F8C030F8BD4FF4BA7001F0D8
:1051700019FF2146B0604FF4BA7200F003FAB36829
:1051800015491E6402220120DA841862C3F808114E
:10519000B468002CC8D1F8BD104AC4F8D470C4F863
:1051A000B820C4F8B420F8BD67B10D48C4F8DC706D
:1051B000C4F8C800C4F8C400F8BDC4F8CC70C4F882
:1051C000D070B5E7C4F8C870C4F8C470F8BD00BFAB
:1051D000454F0008F94E000875500008E94E0008D8
:1051E000094F000838B58468054604B34FF4FA70D7
:1051F00001F0D8FEA26B2368A066D01DC01003FB8F
:1052000000F001F0CFFE00220121E066A869FDF761
:10521000DFFED4F808110546204688472046D4F81A
:10522000B0209047002DD4BF0020012038BD4FF49E
:10523000BA7001F0B7FE2146A8604FF4BA7200F0D0
:10524000A1F9AB6804491D6402220120DA841862C6
:10525000C3F80811AC68C9E775500008F8B5846850
:1052600005460F46164614B127606660F8BD4FF438
:10527000BA7001F097FE2146A8604FF4BA7200F0B0
:1052800081F9AB6804491D6402220120DA841862A6
:10529000C3F80811AC68E7E7755000082DE9F04144
:1052A0008468E08C00F00205A8B282B088461746F8
:1052B0001D4638B3D4F800612046B0474146064643
:1052C000D4F804313A46204698472169A269B14290
:1052D0008046D4BF002101216069B242ACBF0B46B9
:1052E00041F001034045D4BF194643F00101A9B97B
:1052F000E269424512DBD4F8AC30204631464246E2
:10530000984703E0D4F8AC3020469847D4F8A4205E
:1053100020462946904702B0BDE8F08167682368BF
:10532000781E00900021D4F8A87020460A46013B60
:10533000B847E0E7F0B58468E38C03F0020085B27B
:1053400083B00F461646002D3BD0D4F800512046BE
:10535000A847D4F8043132460546394620469847D6
:10536000D4F8983006461BB1204601210022984708
:105370002069A2696169A842D4BF00200120AA4225
:10538000ACBF034640F00103B142D4BF184643F01E
:105390000100002821D1E269B2421EDB29462046E5
:1053A0003246D4F8AC50A847D4F8A0202046904705
:1053B000D4F8983005466BB1204600210122984769
:1053C00008E02046D4F8AC309847D4F8A010204626
:1053D00088470546284603B0F0BD67682368791EF4
:1053E00000910021D4F8A87020460A46013BB84736
:1053F000D4E700BF38B58568044605B138BD4FF421
:10540000BA7001F0CFFD2946A0604FF4BA7200F0E7
:10541000B9F8A36804491C6402220120DA841862E6
:10542000C3F8081138BD00BF7550000870B5846816
:1054300006460D46B4B195E80E0063635B07E16272
:10544000226307D594E80500A168E36822606060E4
:10545000A360E160AA892869A28410B120EAE07102
:10546000216270BD4FF4BA7001F09CFD2146B0601E
:105470004FF4BA7200F086F8B36805491E64022240
:105480000120DA841862C3F80811B468D3E700BFBA
:10549000755000082DE9F041856804468846164697
:1054A0001F467DB14146682205F5867006F0AEF9CB
:1054B0002046B0472046B84723699A689047A862BB
:1054C000BDE8F0814FF4BA7001F06CFD2946A06090
:1054D0004FF4BA7200F056F8A36805491C64022222
:1054E0000120DA841862C3F80811A568DAE700BF62
:1054F0007550000830B583B00D46144600F00CFA24
:10550000019068B1C3680A215A6A01A8904703460E
:1055100030B10198294622469847002003B030BD9B
:105520000120FBE730B583B00D46144600F0F4F9D6
:10553000019068B1C3680B215A6A01A890470346DD
:1055400030B10198294622469847002003B030BD6B
:105550000120FBE730B583B00D46144600F0DCF9BE
:10556000019068B1C36810215A6A01A890470346A8
:1055700030B10198294622469847002003B030BD3B
:105580000120FBE72DE9F003002A00F0CF8010F0A6
:10559000030F03460DD0541E14F0010F00F0D58008
:1055A0000346224603F8011B13F0030F184640F090
:1055B000CC80970848D001EB0124032F02F00302AE
:1055C00004EB044328DD3D1F2E46032E0360436099
:1055D0008360C360C5F3800500F1100414DD3DB1A4
:1055E000043E23606360A360E3601034032E0BDD90
:1055F000083E23606360A360E36023616361A3618D
:10560000E3612034032EF3DC043FBC08651CB7EBD8
:10561000840700EB051015D07E1E0446354644F87D
:10562000043B06F001065DB11EB1013D44F8043BA8
:1056300006D0264646F8043B6360341D023DF8D18F
:1056400000EB8700002A71D0434203F00307974222
:1056500028BF1746032A98BF17469146002F7BD0D4
:105660000346C54303F8011B44191D1AE619013A04
:10567000BD4206F001041E4611D234B103F8011BED
:105680001C1A013ABC421E4609D21C46023A04F8D2
:10569000011B5970631C1C1ABC421E46F5D3B94548
:1056A00044D0C7EB09094FEA990C4FEA8C08BCF1CA
:1056B000000F25D0002561F3070561F30F250124B4
:1056C00061F31745C01961F31F650CF1FF336445A1
:1056D00040F8045B03EA04030DD223B102246445BD
:1056E00040F8045B07D20346023443F8045B45608C
:1056F000181D6445F7D3C1454644C8EB020215D0D6
:105700003346B21803F8011BF6439019934200F098
:1057100001060BD01EB103F8011B934206D01846B8
:1057200000F8011B5970431C9342F8D1BDE8F00307
:10573000704710F0030F3FF43CAF03F8011B013A30
:1057400013F0030F18463FF434AF1846013A00F83F
:10575000011B0346EDD1E9E70646A2E7F0B585B0A7
:1057600004AC01AD0F461646194600226B4644F8BC
:10577000105D01F04DFD28463946324600F028F80C
:1057800005B0F0BD034B19680246C86902B1CA6191
:10579000704700BF08C8FF1F04F0B4BBF8B54CF653
:1057A0000803C1F6FF7305461868B0F92C4044F0B1
:1057B00002000F46164604F0C5FC39460446324640
:1057C000284600F005F82046BDE8F84004F0BABCD1
:1057D0004CF60803C1F6FF731B6859849A8400F0E5
:1057E00001B800BF2DE9F04F044685B000286FD006
:1057F000DFF8208100F056FCD8F800308146588C44
:10580000009000F037FCD8F80020918C80B20B1A81
:105810009BB2938421780190002953D01FFA89F913
:10582000C24647F6FF71204600F07EFB054629463A
:10583000204600F0BFFBD8F800309A8D02F0030636
:10584000012E64D0022E5BD01FFA80FB4FF00007C0
:10585000588C9E8CC11B1FFA81FC1FFA8CF70BF130
:10586000FF3206F1FF3E9444CE4402AA2046294668
:105870005F84ADF80CC0ADF80EE0ADF80870ADF87F
:105880000A6000F0D7FBD8F80030BDF80A102046B7
:105890009984294604F024FC225C0A2A04EB0003C4
:1058A00019D00D2A17D0BDF80800DAF8002083447B
:1058B000A2F822B0197819B158785C1C0028B0D130
:1058C000938C0198918DC31821F0030093849085E7
:1058D00005B0BDE8F08FD8F80020918D01F00301EC
:1058E000013901298BBF118C00985184508419789B
:1058F0000A29E0D1908C09EB000191841978DAE74C
:1059000000EBD07CCCF34F071FFA80FBA0E787B2F7
:10591000BB469DE708C8FF1F00280EDC084B53F864
:10592000200058B1C1680A681AB908E0C36819684C
:1059300021B100680028F9D17047002070477047F6
:10594000F0DAFF1F094A816952F821309842036852
:1059500008BF42F8213042680AB11360036803B1FE
:105960005A60002101604160704700BFF0DAFF1FFC
:1059700070B410B18469002C02DD012070BC704746
:105980001C4D55F824300BB930E013465A68002AF4
:10599000FBD1C168DA68096812688A4206DD1B68B3
:1059A000002BEAD0DA6812688A42F8DC91420BD008
:1059B0005968C1B108604160834214BF1A46002291
:1059C000586002600020D9E7828A012AF0D11E4681
:1059D00004E0DE6832688A421E46E9DB1B68002B61
:1059E000F7D13346E4E745F82400E5E745F824001D
:1059F0001846C3E7F0DAFF1F2DE9F0411D1E0746E8
:105A00000E4690461CDC1C2001F0CCFA0446B8B1CE
:105A1000D6B106610023A561A4F81480E760236075
:105A20006360A3602046FFF7A3FFE068016821B927
:105A30000B4A136803EB85056C642046BDE8F081D2
:105A400000242046BDE8F081064B53F825200AB912
:105A5000E0E7024610680028FBD111692161D9E70F
:105A600008C8FF1FF0DAFF1F4CF6DC00C1F6FF701C
:105A700010B5002440F8044B21465822FFF782FD60
:105A80004DF6F020C1F6FF7021460422BDE810401B
:105A9000FFF778BD4CF60003C1F6FF7358607047FE
:105AA000002010B5014604F0A1FB042003F06EFBBA
:105AB00004464CF20100CFF6FF7043F6FF72014638
:105AC000134603F0C1FB2046BDE8104003F05EBB67
:105AD000F8B5244C236863B901202060FDF758F91C
