:020000040C00EE
:1000000000C8FF1F010200089102000891020008C9
:10001000910200089102000891020008000000000F
:100020000000000000000000000000009102000835
:1000300091020008000000009102000891020008EF
:100040009102000891020008910200089102000844
:100050009102000891020008910200089102000834
:1000600091020008000000000000000000000000F5
:1000700091020008000000009102000891020008AF
:100080009102000891020008910200089102000804
:1000900091020008910200089102000891020008F4
:1000A000910200089102000800000000000000001A
:1000B0000000000000000000000000000000000040
:1000C0000000000000000000000000000000000030
:1000D0000000000000000000000000000000000020
:1000E00000000000000000009102000891020008DA
:1000F0009102000891020008910200089102000894
:10010000910200085D280008910200089102000891
:1001100000000000000000000000000000000000DF
:1001200000000000000000000000000000000000CF
:100130009102000891020008910200089102000853
:1001400000000000000000000000000000000000AF
:100150009102000891020008000000000000000069
:100160009102000891020008910200089102000823
:100170009102000891020008910200089102000813
:100180009102000891020008910200089102000803
:1001900091020008910200089102000891020008F3
:1001A00091020008910200082D2000081D2000087F
:1001B00091020008910200089102000891020008D3
:1001C000000000000000000000000000000000002F
:1001D0000000000000000000910200080000000084
:1001E000910200089102000800000000910200083E
:1001F00000000000000000000000000000000000FF
:10020000DFF86CD01B4880471B4C1C4DAC4209DA10
:1002100021686268A368043BA2BFC858D050FAE7BF
:100220000C34F3E7164B174CA34208DA19685A68E6
:100230000020043AA4BF8850FBE70833F4E71248D3
:100240008047124880470000902A000C00C8FF1F1A
:100250004C000000902A000C00C8FF1F00000000A6
:100260004CC8FF1FF000000000000020000000004C
:1002700000C8FF1F9502000848020008600200083D
:10028000600200087002000881290008792800082F
:10029000FEE7000098B500AF084A4FF0005314463F
:1002A0000FCB84E80F00064B064A07CA83E8070015
:1002B00002F0D4F902F03CFA98BD00BFC45F002000
:1002C000D45F00208400002080B584B000AF2F4BA5
:1002D000DB6803F48033002B3ED02D4BDB6803F04A
:1002E0000103002B02D02B4BFB6002E002F016FA58
:1002F000F860274B1B6803F00403002B20D0244B2D
:100300009B6803F070631B0E0133BB60204B9B683E
:1003100003F4FE431B0A01337B601D4B9B6803F40F
:10032000FE031B0C01333B60BB683A6802FB03F31E
:10033000FA68B2FBF3F37A6802FB03F3FB600DE0AB
:10034000134B9B6803F07F0301333B60FA683B6803
:10035000B2FBF3F3FB6001E00E4BFB600B4BDB6881
:10036000DBB20133FA68B2FBF3F3FB60074B1B69A6
:1003700003F001030133FA68B2FBF3F3FB60064AB2
:10038000FB6813601037BD4680BD00BF00460050BB
:100390001047005000366E01C05F002080B582B06B
:1003A00000AF78607B68074A934207D14FF48030F2
:1003B00000F0EAFA4FF4803000F076F90837BD46D5
:1003C00080BD00BF0040044080B485B000AFF8603D
:1003D0000B467A60FB72FB7A9B08DBB21846FB7A0D
:1003E0009B08DBB21A46FB68043253F82220FB7AE2
:1003F00003F00303DB001946F8238B40DB4302EADA
:100400000301FB68021D43F82210FB685A6FFB7A58
:100410005B00194603238B40DB431A40FB685A6795
:10042000FB68384A93420AD1FB681A6EFB7A0121B5
:1004300001FA03F3DB431A40FB681A6642E07B686B
:100440001B78DBB25BB2002B3CDA7B685A68FB7A24
:100450009A40FB685A60FB7ADB08DBB21846FB7AED
:10046000DB08DBB21A46FB68103253F82220FB7A15
:1004700003F007039B00194607238B40DB4302EA86
:100480000301FB6800F1100243F82210FB7ADB083D
:10049000DBB21846FB7ADB08DBB21A46FB68103287
:1004A00053F822207B681B7A1946FB7A03F0070376
:1004B0009B0001FA03F342EA0301FB6800F110021A
:1004C00043F82210FB7A9B08DBB21846FB7A9B08A4
:1004D000DBB21A46FB68043253F822207B681B7893
:1004E0001946FB7A03F00303DB0001FA03F342EA47
:1004F0000301FB68021D43F822101437BD465DF866
:10050000047B7047008E024880B400AF034B1B6829
:100510001846BD465DF8047B704700BFC05F0020F1
:1005200080B400AF034BD3F8C4301846BD465DF825
:10053000047B70470040005080B584B000AF786005
:10054000FFF7C2FE0B4B1B680B4AA2FB03239A0C5E
:100550007B6802FB03F37B600023FB6003E000BFCA
:10056000FB680133FB60FA687B689A42F7D3103767
:10057000BD4680BDC05F002083DE1B4380B400AF5A
:10058000034B5B681846BD465DF8047B704700BFAF
:100590007440005080B483B000AF7860034A7B6839
:1005A000D3600C37BD465DF8047B70477440005043
:1005B000B0B584B002AF7860002000F0C5F800F05C
:1005C000B3FA7B68DB79002B0AD000F0EBFA00BFAE
:1005D00000F0D6FA034683F00103DBB2002BF7D11B
:1005E0007B685B7A184600F029F900BFFFF798FF97
:1005F0000346002BFAD17B681B7A184600F06EFA8E
:100600007B681B7C184600F037F97B685B7C1846DA
:1006100000F05AF97B689B7C184600F041F97B6832
:10062000DB7C184600F064F97B689B79002B0AD0CC
:1006300000F0F0FA00BF00F015FB034683F0010361
:10064000DBB2002BF7D17B68DB78002B09D17B680C
:100650009B7983F00103DBB2002B17D000F026FB5F
:1006600014E000F013FB7B6899887B68DA787B687C
:100670005B781D467B681B781C467B689B780093E3
:10068000084611462A46234600F020FB7B68DB68BB
:10069000B3F5803F03D14FF4803000F055F8FFF7F9
:1006A00013FE0837BD46B0BD80B485B000AF78609A
:1006B0007B681B0FFB607B6823F07043BB60FA68AC
:1006C00013465B0013449B001A46044B1344BA685C
:1006D0001A601437BD465DF8047B7047144400501F
:1006E00080B485B000AF78607B681B0FFB607B68CF
:1006F00023F07043BB60FA6813465B0013449B0011
:100700001A46084B13441A68BB681340002B14BFE9
:1007100001230023DBB218461437BD465DF8047B85
:10072000704700BF0C44005080B500AFFFF7ECFEEF
:100730000246044B5B6903F0010322FA03F31846F7
:1007400080BD00BF0046005080B483B000AF786029
:100750000649064BDB6823F480327B681343CB6089
:100760000C37BD465DF8047B704700BF0046005063
:1007700080B483B000AF78600649064B9B6923F4D0
:1007800080327B6813438B610C37BD465DF8047B78
:10079000704700BF0046005080B483B000AF78605F
:1007A0000649064B5B6A23F440327B6813434B6275
:1007B0000C37BD465DF8047B704700BF0046005013
:1007C00080B483B000AF0346FB80FB88002B08D1C8
:1007D0000A4A0A4BDB6823F4807323F00103D360D9
:1007E00007E0064A054BDB6843F4807343F00103DE
:1007F000D3600C37BD465DF8047B7047104700504E
:1008000080B483B000AF0346FB7100BF094BD3F83F
:10081000C43003F00803002BF8D10749064BDB680E
:1008200023F04002FB791343CB600C37BD465DF8E3
:10083000047B7047004000500043005080B483B0F8
:1008400000AF0346FB7100BF094BD3F8C43003F07F
:100850000803002BF8D10749064BDB6823F0800220
:10086000FB791343CB600C37BD465DF8047B7047C2
:10087000004000500043005080B483B000AF786067
:100880000649064BDB6823F0FF027B68013B1343FC
:10089000CB600C37BD465DF8047B704700460050C6
:1008A00080B483B000AF78600649064B1B6A23F022
:1008B00001027B68013B13430B620C37BD465DF8B8
:1008C000047B70470046005080B483B000AF78606E
:1008D0000649064B1B6923F001027B68013B134369
:1008E0000B610C37BD465DF8047B70470046005035
:1008F00080B483B000AF78600649064B5B6923F093
:1009000001027B68013B13434B610C37BD465DF828
:10091000047B70470046005080B483B000AF78601D
:100920000649064B9B6923F007027B68013B134392
:100930008B610C37BD465DF8047B70470046005064
:1009400080B483B000AF78600649064B5B6A23F041
:10095000FF027B68013B13434B620C37BD465DF8D9
:10096000047B70470046005080B483B000AF03465C
:10097000FB71044AFB7953600C37BD465DF8047B7C
:10098000704700BF0046005080B485B000AF78606B
:100990007B681B0FFB607B6823F07043BB60FA68C9
:1009A00013465B0013449B001A46044B1344BA6879
:1009B0001A601437BD465DF8047B70474846005006
:1009C00080B485B000AF78607B681B0FFB607B68EC
:1009D00023F07043BB60FA6813465B0013449B002E
:1009E0001A46084B13441A68BB681340002B14BF07
:1009F00001230023DBB218461437BD465DF8047BA3
:100A0000704700BF4046005080B400AF054A054B18
:100A10005B6923F4803323F002035361BD465DF824
:100A2000047B70471047005080B483B000AF7860FB
:100A30003960284A274B5B6943F00103536100BFCB
:100A4000244B1B6903F00103002BF9D0214A214BF1
:100A50005B6943F0100353611E493B68013B1A0276
:100A60007B68013B1B0613434B611A4A194B5B69B8
:100A700043F040035361174A164B5B6923F01003A0
:100A80005361144A134B5B6943F48023536100BFE5
:100A9000104B1B6903F00403002BF9D00D4A0D4BDA
:100AA0005B6923F00103536100BF0A4B1B6903F02C
:100AB0000103002BF9D1074A064B5B6923F0400381
:100AC0005361054B0822DA600C37BD465DF8047BA4
:100AD000704700BF104700506041005080B582B0A1
:100AE00000AF0346FB710F4A0E4B5B6843F4801363
:100AF0005360FB79012B0ED10A4A0A4B5B6823F441
:100B0000801353606420FFF717FD064A054B5B68AE
:100B100043F4002353606420FFF70EFD0837BD4601
:100B200080BD00BF1047005080B400AF124B1B685F
:100B300003F00103002B09D10F4B01225A6000BFC3
:100B40000D4B1B6803F00103002BF9D00B4B1B6806
:100B500003F40073002B0AD0084B4FF400729A6024
:100B600000BF064B1B6803F40073002BF9D1BD4690
:100B70005DF8047B704700BF004200500044005005
:100B800080B400AF064B1B6803F00803002B0CBFBA
:100B900001230023DBB21846BD465DF8047B704795
:100BA0000043005080B500AF4FF40000FFF7F2FCA7
:100BB000174A174BDB6923F03003D36100BFFFF7FF
:100BC000DDFC034603F40003002BF8D04FF40030A3
:100BD000FFF7E0FC0E4B08225A6000BFFFF7CEFC87
:100BE000034603F40033002BF8D04FF40020FFF746
:100BF000D1FC074A064BDB6843F00803D36000BF13
:100C0000FFF7BCFC034603F40023002BF8D080BDA3
:100C100000430050B0B500AF0F4A0F4B5B6823F4A0
:100C2000803353600D4D0D4B5B6823F4702424F02A
:100C3000300401F073FD0246094BA3FB02231B0D98
:100C4000013B1B0423436B60034A034B5B6823F4A3
:100C500000335360B0BD00BF104700500047005044
:100C60006BCA5F6B80B400AF074B1B6803F4607303
:100C7000B3F5607F0CBF01230023DBB21846BD46ED
:100C80005DF8047B704700BF1047005080B400AF90
:100C9000054A054B5B6823F4803323F0020353605D
:100CA000BD465DF8047B70471047005080B400AF2C
:100CB000054A054B5B6843F4803343F002035360FD
:100CC000BD465DF8047B70471047005080B586B084
:100CD00000AFBA607B600346FB810B467B73FB89E8
:100CE0001846FFF76DFD7B7B012B40F08B80FB8965
:100CF000002B09D101F012FD0246544BA3FB022345
:100D00009B0C9B057B6102E04FF0C0637B617B69BC
:100D10007A6802FB03F2BB68B2FBF3F37B617B6989
:100D20004B4AA2FB03231B099B0D3B61494A494BDC
:100D30005B6843F00103536000BF464B1B6803F040
:100D40000103002BF9D0434A424B5B6843F0100388
:100D5000536040493F4B9A683F4B13407A68013AD1
:100D600012021A433B69013B1B041A43BB68013B57
:100D70001B0613438B60374A364B5B6843F04003D6
:100D80005360344A334B5B6823F010035360314A9D
:100D9000304B5B6843F48023536000BF2D4B1B68CE
:100DA00003F00403002BF9D02A4A2A4B5B6823F096
:100DB0000103536000BF274B1B6803F00103002BA6
:100DC000F9D17B69254AA2FB03235B099B0D3B619B
:100DD0003A6A3B699A4202D2386900F045F87B6969
:100DE0005B081F4AA2FB03235B099B0D3B613A6A28
:100DF0003B699A4202D2386900F036F8386A00F04E
:100E000033F81CE01349134B9B6823F07F023B6AC5
:100E1000013B13438B6000BF0E4B1B6803F01003B4
:100E2000002BF9D00B4A0B4B5B6843F00103536076
:100E300000BF084B1B6803F00103002BF9D0094BDE
:100E40000522DA601837BD4680BD00BF83DE1B4334
:100E5000ABAAAAAA10470050FF8080F08988888832
:100E6000B7600BB66041005080B582B000AF7860CB
:100E70000B490B4B9B6823F4FE027B68013B1B0470
:100E800013438B6000BF064B1B6803F02003002B4D
:100E9000F9D03220FFF750FB0837BD4680BD00BFB8
:100EA0001047005080B483B000AF78607B684FF487
:100EB0008072DA600C37BD465DF8047B704700BF76
:100EC00080B582B000AF78607B68084A934203D156
:100ED0000420FFF7E9FB06E07B68054A934202D154
:100EE0000820FFF7E1FB0837BD4680BD00C0004089
:100EF0000000014080B582B000AF78607B68084A8E
:100F0000934203D10420FFF73FFD06E07B68054ACA
:100F1000934202D10820FFF737FD0837BD4680BD58
:100F200000C000400000014080B582B000AF786092
:100F30001020FFF719FD7868FFF7DCFF7868FFF7EE
:100F4000BFFF0837BD4680BD80B584B000AF786074
:100F50000B46FB707868FFF7E7FF7868FFF7A2FFA2
:100F60007B681B68FB60FB6823F44043FB60FB78F5
:100F70009B03FA681343FB607B68FA681A601037BA
:100F8000BD4680BD80B483B000AF786039603B68F7
:100F90001A687B685A613B685B79C3F34013DBB224
:100FA0001A057B685A603B681B79C3F30303DBB205
:100FB0001A467B685A623B685B79C3F30303DBB272
:100FC0001A467B681A623B685B79C3F30013DBB295
:100FD0001A467B689A613B681B79C3F30313DBB243
:100FE0001A467B68DA620C37BD465DF8047B7047B1
:100FF00080B487B000AF78600B46FB701346BB70BF
:10100000FB780B2B36D801A252F823F03D100008D4
:101010003D10000847100008471000087510000830
:1010200075100008751000087510000851100008B0
:101030005D100008691000086910000803233B6177
:1010400000237B611BE00C233B6102237B6116E0E4
:101050004FF440733B6108237B6110E04FF4406321
:101060003B610A237B610AE04FF440533B610C2350
:101070007B6104E000233B6100237B6100BF3B698F
:10108000002B13D07B68D3F8A830FB603B69DB43AF
:10109000FA681340FB60BA787B6902FA03F3FA68D6
:1010A0001343FB607B68FA68C3F8A8201C37BD4671
:1010B0005DF8047B704700BF80B584B000AFF86076
:1010C0000B467A60FB72F868FFF768F9FB681A68EC
:1010D000FB7A9B0019460F238B40DB431A407B6849
:1010E0001B68F97A89008B401A43FB681A60FA7A08
:1010F0007B685968FB68043243F822101037BD46FC
:1011000080BD00BF80B483B000AF78600B46FB7039
:101110001346BB70FA78BB7803F00303D9B27B683F
:10112000083201F00301090153F8220020F03000D9
:10113000014343F822100C37BD465DF8047B70472D
:1011400080B483B000AF78600B46FB701346BB7071
:101150007B685A6FFB785B00194603238B40DB43A7
:101160001A407B685A677B685A6FBB78F9784900E8
:101170008B401A437B685A670C37BD465DF8047B89
:10118000704700BF80B483B000AF78607B689B6B12
:10119000DBB223F07F03DBB218460C37BD465DF8A7
:1011A000047B704780B483B000AF786039607B689F
:1011B0003A68DA640C37BD465DF8047B704700BFBF
:1011C00080B586B000AFF860B9601346FB7110239C
:1011D0007B61F86800F09EF8BB681B7A002B02D098
:1011E000BB681B7A7B61FB79002B14D0BB681B7931
:1011F000002B09D0BB681B681A467B69F86811464A
:101200001A4600F033F906E0BB681B68F868194617
:101210007A6900F0B9F8BB68DB79013B5A007B6959
:101220005B0801331B02134343F4403343F00103D3
:10123000FA68D363BB685B79013B1B0643F4817298
:10124000FB685A63BB689B79002B09D0FB685A6B1B
:10125000BB689B79013B1B041A43FB685A6308E097
:10126000FB685A6BBB685B79013B1B041A43FB6844
:101270005A63FB684FF4A0629A63FB684FF0FF3239
:10128000DA64BB685B891A46FB681A641837BD4686
:1012900080BD00BF80B582B000AF78600B467B8018
:1012A0007B68D3F8083103F0E063002B10D100BF56
:1012B0007868FFF767FF0346802BF9D078684FF412
:1012C0000051FFF76FFF7A887B68C3F8802003E046
:1012D0007A887B68C3F880210837BD4680BD00BF8F
:1012E00080B485B000AF78607B68D3F80C3103F030
:1012F000E063002B03D17B685B6DFB8103E07B68BF
:10130000D3F81C31FB81FB8918461437BD465DF8C4
:10131000047B704780B582B000AF78607B68144A68
:10132000934203D07B68134A934203D1124800F0E2
:10133000DFF90AE07B68114A934203D07B68104AC8
:10134000934202D10F4800F0D3F97B680322DA60A0
:1013500000BF7B68DB6803F00103002BF9D07B68DA
:101360001B6C23F00F027B681A640837BD4680BDF2
:101370000000034000020340080003400000024850
:10138000000202480800024880B58EB000AFF86045
:10139000B9607A60BB68632B5AD97B68002B57D041
:1013A000FFF7C2F902462F4BA3FB02235B093B6206
:1013B000BB682C4AA2FB03235B09BB604FF480632C
:1013C000FB620123BB6240F2FF337B624FF4806318
:1013D0003B6322E03B6A3A6B02FB03F2BB6879682D
:1013E00001FB03F3B2FBF3F3FB61FB699B0ABB61F7
:1013F000FB69C3F309037B61BB69B3F5806F09D84F
:101400007A697B6A9A4205D27B697B62BB69BB625F
:101410003B6BFB623B6B013B3B633B6B002BD9D1CE
:10142000FB6A013B43F40042FB681A61FB685A699E
:101430000D4B13407A68013A92021A43BB6A013B92
:101440001B041A43FB685A61002387F8373002E017
:10145000012387F8373097F8373018463837BD46BC
:1014600080BD00BF1F85EB51EF8000FC80B58CB0C4
:1014700000AFF860B9607A60FFF756F903463B6247
:10148000BB687A6802FB03F3FB610123FB623A6AE3
:10149000FB699A425FDD3A6AFB6992FBF3F3BB6238
:1014A00010E0FB6A0133FB62BB687A6802FB03F35E
:1014B0001A46FB6A03FB02F3FB613A6AFB6992FB83
:1014C000F3F3BB62BB6A40F2FE329342E9D83A6A58
:1014D0007B68B96A01FB03F3F96A01FB03F3B2FB12
:1014E000F3F3BB613A6ABB6A0133796801FB03F32A
:1014F000F96A01FB03F3B2FBF3F37B61BA687B6922
:10150000D31A83EAE372A2EBE372B968BB69CB1A20
:10151000002BB8BF5B429A4202DABB6A0133BB625E
:10152000BB6AC3F58063BB62BB6A43F48042FB685D
:101530001A61FB685A690C4B13407A68013A9202AF
:101540001A43FB6A013B1B041A43FB685A610023E0
:1015500087F8273002E0012387F8273097F82730F3
:1015600018463037BD4680BDEF8000FC80B485B0A2
:1015700000AFF860B9603B601346FB71FB68D3F8BD
:10158000083123F0E062FB68C3F80821FB68D3F858
:101590000821094B13403A681102BA681143FA79DD
:1015A00012060A431A43FB68C3F808211437BD46E4
:1015B0005DF8047B704700BFC0C0FFF880B485B001
:1015C00000AFF860B9603B601346FB71FB68D3F86D
:1015D0000C3123F0E062FB68C3F80C21FB68D3F800
:1015E0000C210A4B13403A681102BA681143FA7988
:1015F00012060A43134343F08052FB68C3F80C21E0
:101600001437BD465DF8047B704700BFC0C0FFEFD4
:1016100080B485B000AFF8600B467A60FB72FB685F
:10162000D3F80C3123F47C527B681B021A43FB680D
:10163000C3F80C211437BD465DF8047B704700BF2A
:1016400080B485B000AFF8600B467A60FB72FB682F
:101650009A69FB7A072101FA03F3DB431A40FB7A0C
:10166000796801FA03F31A43FB689A611437BD469F
:101670005DF8047B704700BF80B485B000AFF860B0
:101680000B467A60FB72FB68D3F80821FB7A0721CE
:1016900001FA03F3DB431A40FB7A796801FA03F39A
:1016A0001A43FB68C3F808211437BD465DF8047B74
:1016B000704700BF80B485B000AFF8600B467A6019
:1016C000FB72FB68D3F80C21FB7A072101FA03F3C4
:1016D000DB431A40FB7A796801FA03F31A43FB688B
:1016E000C3F80C211437BD465DF8047B704700BF7A
:1016F00080B582B000AF78607B681B4A934218D1F6
:101700004FF40060FFF740F900BF4FF40060FFF7AF
:1017100057F90346002BF8D14FF40060FEF7C4FFE1
:1017200000BF4FF40060FEF7DBFF0346002BF8D14B
:1017300017E07B680D4A934213D10D48FFF724F957
:1017400000BF0B48FFF73CF90346002BF9D10848CE
:10175000FEF7AAFF00BF0648FEF7C2FF0346002BB4
:10176000F9D10837BD4680BD080003400800024893
:101770008000001080B400AFBD465DF8047B704768
:1017800080B483B000AF786039607B681A6C3B68C6
:101790001A437B681A640C37BD465DF8047B7047BA
:1017A00080B483B000AF786039607B681A6C3B68A6
:1017B000DB431A407B681A640C37BD465DF8047B36
:1017C000704700BF80B483B000AF78607B689B6BCC
:1017D000DBB223F07F03DBB218460C37BD465DF861
:1017E000047B704780B483B000AF786039603B6899
:1017F0004FF480329A407B689A660C37BD465DF89C
:10180000047B704780B483B000AF786039607B6838
:10181000D3F808213B681A437B68C3F808210C37CA
:10182000BD465DF8047B704780B483B000AF78603C
:1018300039607B68D3F808213B68DB431A407B683A
:10184000C3F808210C37BD465DF8047B704700BF24
:1018500080B483B000AF78607B684FF40042C3F877
:1018600018210C37BD465DF8047B704780B483B007
:1018700000AF78607B68D3F8143103F48053002BF9
:1018800014BF01230023DBB218460C37BD465DF8B8
:10189000047B704780B483B000AF78607B68D3F876
:1018A000143103F40063002B14BF01230023DBB2C7
:1018B00018460C37BD465DF8047B704780B483B092
:1018C00000AF786039607B68D3F80C213B681A431D
:1018D0007B68C3F80C210C37BD465DF8047B70476C
:1018E00080B483B000AF786039607B68D3F80C2196
:1018F0003B68DB431A407B68C3F80C210C37BD46BC
:101900005DF8047B704700BF80B483B000AF78609F
:101910007B684FF48042C3F818210C37BD465DF850
:10192000047B704780B483B000AF78607B68D3F8E5
:10193000143103F00803002B14BF01230023DBB292
:1019400018460C37BD465DF8047B704780B584B0FF
:1019500000AF78600023FB737B685B685B68984727
:101960000346FB73FB7B18461037BD4680BD00BFA6
:1019700080B586B000AFF860B9607A600423FB756B
:10198000FB685B6893F82930002B00D007E0F8680B
:10199000B9687A6800F024F80346FB7500BFFB7D48
:1019A00018461837BD4680BD80B586B000AFF860D8
:1019B000B9607A600423FB75FB685B6893F82A3092
:1019C000002B00D007E0F868B9687A6800F064F886
:1019D0000346FB7500BFFB7D18461837BD4680BD2A
:1019E00080B586B000AFF860B9607A600423FB75FB
:1019F000FB689B683B61FB685B6893F82930002BB0
:101A000044D10223FB753B691B7EDBB283F00103EB
:101A1000DBB2002B3AD0BB68002B35D07B68002BA3
:101A200032D03B69BA681A603B697A689A603B6950
:101A30000022DA603B6901221A76FB685B6893F842
:101A40002B30002B0CD0FB681B681846FFF700FFFB
:101A5000FB681B6818464FF08041FFF7D3FE06E095
:101A6000FB681B6818464FF40051FFF789FE0023FE
:101A7000FB75FB681A68FB685B6893F82D301046AD
:101A80001946FFF7AFFE01E00323FB75FB7D184607
:101A90001837BD4680BD00BF80B586B000AFF86086
:101AA000B9607A600423FB75FB689B683B61FB6847
:101AB0005B6893F82A30002B3ED10223FB753B690B
:101AC0005B7EDBB283F00103DBB2002B34D0BB685A
:101AD000002B2FD07B68002B2CD03B69BA685A6052
:101AE0003B697A681A613B6901225A763B69002298
:101AF0005A61FB685B6893F82C30002B10D0FB68B0
:101B00001B681846FFF700FFF868796800F030F9A5
:101B1000FB681B6818464FF0C041FFF7CFFE06E098
:101B2000FB681B6818464FF44041FFF729FE00236D
:101B3000FB7501E00323FB75FB7D18461837BD4696
:101B400080BD00BF80B584B000AF78607B689B68C3
:101B5000FB60FB68DA68FB689B689A4240D27B684E
:101B60005B6893F82B30002B27D01AE0FB68DA680B
:101B7000FB689B689A4212D27B681968FB681A68F6
:101B8000FB68DB6813441B789BB208461946FFF7D5
:101B900081FBFB68DB685A1CFB68DA6001E000BF70
:101BA00053E07B681B681846FFF760FE034683F02E
:101BB0000103DBB2002BD9D147E07B681968FB68D1
:101BC0001A68FB68DB6813441B789BB20846194609
:101BD000FFF760FBFB68DB685A1CFB68DA6034E0E7
:101BE0007B681B681846FFF755FE0346002B2CD078
:101BF0007B685B6893F82B30002B07D07B681B68F1
:101C000018464FF08041FFF70FFE06E07B681B6827
:101C100018464FF40051FFF7C3FD00BF7B681B68F7
:101C20001846FFF7CFFD0346802BF7D0FB68002254
:101C30001A76FB6800221A607B685B689B68002B41
:101C400003D07B685B689B6898471037BD4680BDB2
:101C500090B585B000AF78607B689B68FB607B685F
:101C60005B6893F82C30002B4ED032E0FB685A6949
:101C7000FB681B699A4211D2FB685A68FB685B6972
:101C8000D4187B681B681846FFF72AFB0346DBB2B3
:101C90002370FB685B695A1CFB685A61FB685A69D0
:101CA000FB681B699A4214D1FB6800225A767B6854
:101CB0001B6818464FF0C041FFF712FE7B685B6857
:101CC000DB68002B04D07B685B68DB6898470BE01F
:101CD0000AE07B681B681846FFF724FE034683F082
:101CE0000103DBB2002BC1D1FB685A69FB681B6999
:101CF0009A423AD2FB681A69FB685B69D31A786822
:101D0000194600F035F830E0FB685A69FB681B693A
:101D10009A4211D2FB685A68FB685B69D4187B68E9
:101D20001B681846FFF7DCFA0346DBB22370FB683A
:101D30005B695A1CFB685A61FB685A69FB681B693E
:101D40009A4212D1FB6800225A767B681B681846BB
:101D50004FF44041FFF724FD7B685B68DB68002B94
:101D600003D07B685B68DB6898471437BD4690BD3D
:101D700080B584B000AF786039600023FB607B6879
:101D80005B6893F82C301A4601239340BB603A6895
:101D9000BB689A4203D23B68013BFB6002E0BB6830
:101DA000013BFB607B681A687B685B6893F82C30AA
:101DB00010461946FA68FFF72BFC1037BD4680BD68
:101DC00080B400AF044BDB6803F4E0631B0A1846E1
:101DD000BD465DF8047B704700ED00E080B483B041
:101DE00000AF0346FB7197F90730002B0BDB084966
:101DF00097F907305B09FA7902F01F02012000FA17
:101E000002F241F823200C37BD465DF8047B704791
:101E100000E100E080B483B000AF03463960FB719D
:101E200097F90730002B0ADB0D4997F907303A681C
:101E3000D2B29200D2B20B4483F800230AE00949DF
:101E4000FB7903F00F03043B3A68D2B29200D2B29E
:101E50000B441A760C37BD465DF8047B704700BF13
:101E600000E100E000ED00E080B489B000AFF86070
:101E7000B9607A60FB6803F00703FB61FB69C3F19B
:101E80000703062B28BF0623BB61FB690633062B1D
:101E900002D9FB69013B00E000237B61BB690122A1
:101EA00002FA03F35A1EBB681A407B699A407B69A9
:101EB000012101FA03F3591E7B680B4013431846B6
:101EC0002437BD465DF8047B704700BF80B483B003
:101ED00000AF78600B46FB701346BB70F878FB7858
:101EE0007A6806339B0013445B6823F00702BB78D3
:101EF0001A437968831D9B000B445A600C37BD461A
:101F00005DF8047B704700BF80B582B000AF786099
:101F10003960786839680122FFF752F90837BD4601
:101F200080BD00BF80B483B000AF78607B681B6C5D
:101F300023F00F0343F002027B681A640C37BD469E
:101F40005DF8047B704700BF80B582B000AF00230E
:101F5000FB712D480F212D4AFEF736FA2C482D49EA
:101F6000FFF7D2FF2A4800210222FFF7AFFF2848DF
:101F7000102104220123FFF7F9FA25480021042249
:101F80000023FFF71BFB2248FFF7CCFF1E480E2162
:101F9000214AFEF719FA1E4810210222FFF750FBD2
:101FA0001B4810210122FFF767FB1948102100226E
:101FB000FFF780FB164813210022FFF77BFBFFF79A
:101FC000FFFE034618463F210022FFF74DFF034660
:101FD0005B201946FFF71EFF5B20FFF7FFFEFFF7B0
:101FE000EFFE034618463F210022FFF73DFF034660
:101FF0005A201946FFF70EFF5A20FFF7EFFEFB7934
:1020000018460837BD4680BD00820248202A0008D5
:1020100000000248CC290008D829000880B500AF8C
:102020000148FFF78FFD80BD00C8FF1F80B500AFDE
:102030000148FFF70DFE80BD00C8FF1F80B483B0CC
:1020400000AF78600B46FB70FB7801229A407B68FA
:10205000DA600C37BD465DF8047B704780B483B00E
:1020600000AF78607B680122DA600C37BD465DF80E
:10207000047B704780B483B000AF78607B68022235
:102080001A610C37BD465DF8047B704780B483B09D
:1020900000AF78600B467B807A887B685A630C3788
:1020A000BD465DF8047B704780B483B000AF7860B4
:1020B0000B467B807A887B68DA630C37BD465DF817
:1020C000047B704780B483B000AF786039607B6870
:1020D0003A681A610C37BD465DF8047B704700BF53
:1020E00080B483B000AF78600B46FB707B68D3F898
:1020F000A420FB78012101FA03F31A437B68C3F89B
:10210000A4200C37BD465DF8047B704780B584B0D1
:1021100000AF78600023FB737B6893F8263083F070
:102120000103DBB2002B09D07B6893F82130002B30
:1021300004D1786800F008F80346FB73FB7B18466F
:102140001037BD4680BD00BF80B584B000AF786059
:102150007B681B69184600F01DFA0346FB737B6819
:102160001B699A687B681B7E10461946FFF766FF5D
:102170007B685A697B68DB6910461946FEF702FFE7
:10218000786800F02DF87B6893F82530002B0FD08D
:102190007B685A697B6893F82030104600211A4604
:1021A000FEF726FF7B685B6918460021FFF798FF62
:1021B0007B685B691846FFF75DFF7B68012283F847
:1021C00026207B6893F82430002B04D07B685B6961
:1021D0001846FFF743FFFB7B18461037BD4680BD0E
:1021E00080B582B000AF78607B685A697B685B8C91
:1021F00010461946FFF74AFF7B685B6918460021C5
:10220000FFF752FF7B681B699A687B68DB681046A2
:102210001946FFF757FF0837BD4680BD80B400AFB1
:10222000044BDB6803F4E0631B0A1846BD465DF807
:10223000047B704700ED00E080B483B000AF03463C
:10224000FB7197F90730002B0BDB084997F9073032
:102250005B09FA7902F01F02012000FA02F241F84C
:1022600023200C37BD465DF8047B704700E100E099
:1022700080B483B000AF0346FB7197F90730002BA1
:102280000CDB094997F907305B09FA7902F01F0264
:10229000012000FA02F2603341F823200C37BD46DA
:1022A0005DF8047B704700BF00E100E080B483B0BC
:1022B00000AF03463960FB7197F90730002B0ADB4A
:1022C0000D4997F907303A68D2B29200D2B20B4466
:1022D00083F800230AE00949FB7903F00F03043B6C
:1022E0003A68D2B29200D2B20B441A760C37BD468D
:1022F0005DF8047B704700BF00E100E000ED00E006
:1023000080B489B000AFF860B9607A60FB6803F010
:102310000703FB61FB69C3F10703062B28BF0623F4
:10232000BB61FB690633062B02D9FB69013B00E068
:1023300000237B61BB69012202FA03F35A1EBB68CA
:102340001A407B699A407B69012101FA03F3591E07
:102350007B680B40134318462437BD465DF8047B69
:10236000704700BF90B583B000AF78607B68596854
:102370007B6893F821207B680833084611461A468B
:10238000FEF722F87B6819687B68DA7F7B68143374
:10239000084611461A46FEF78FFE7B681A687B686E
:1023A00093F82030104619460122FEF7ABFE7B68F9
:1023B0001C7FFFF733FF01467B685B7F1A467B6813
:1023C0009B7F084611461A46FFF79AFF024663B202
:1023D00018461146FFF76AFF7B6893F82230002BFE
:1023E0000BD07B681B7F5BB21846FFF741FF7B6811
:1023F0001B7F5BB21846FFF71FFF002318460C3700
:10240000BD4690BD80B400AF044BDB6803F4E063CD
:102410001B0A1846BD465DF8047B704700ED00E0DE
:1024200080B483B000AF0346FB7197F90730002BEF
:102430000BDB084997F907305B09FA7902F01F02B4
:10244000012000FA02F241F823200C37BD465DF866
:10245000047B704700E100E080B483B000AF034626
:102460003960FB7197F90730002B0ADB0D4997F9AA
:1024700007303A68D2B29200D2B20B4483F80023FC
:102480000AE00949FB7903F00F03043B3A68D2B232
:102490009200D2B20B441A760C37BD465DF8047B2D
:1024A000704700BF00E100E000ED00E080B489B0BB
:1024B00000AFF860B9607A60FB6803F00703FB6166
:1024C000FB69C3F10703062B28BF0623BB61FB6929
:1024D0000633062B02D9FB69013B00E000237B6138
:1024E000BB69012202FA03F35A1EBB681A407B69DA
:1024F0009A407B69012101FA03F3591E7B680B4066
:10250000134318462437BD465DF8047B704700BF6F
:1025100080B582B000AF78607B681B785BB21846EC
:10252000FFF77EFF0837BD4680BD00BF90B583B082
:1025300000AF78607B681C78FFF764FF01467B681A
:102540005B781A467B689B78084611461A46FFF767
:10255000ADFF024663B218461146FFF77DFF7B6868
:10256000DB78002B02D07868FFF7D2FF00231846F3
:102570000C37BD4690BD00BF80B483B000AF78601B
:102580007B684FF48072DA600C37BD465DF8047BDF
:10259000704700BF80B582B000AF78607B685B7B1E
:1025A00083F00103DBB2002B0FD07B689A687B6855
:1025B0001B7B10461946FEF7C7FC7B689B681846D4
:1025C000FFF7DAFF7B6801225A73002318460837A9
:1025D000BD4680BD80B582B000AF78607B68196869
:1025E0007B681A7C7B680433084611461A46FDF75F
:1025F000EBFE7B6819687B681A7C7B685B7C08460D
:1026000011461A46FEF79CFD002318460837BD46C2
:1026100080BD00BF80B485B000AF78607B6803F0F8
:102620000703FB600C4BDB68BB60BA684FF6FF0327
:102630001340BB60FB681A02BB68134343F0BF63DF
:1026400043F40033BB60044ABB68D3601437BD4613
:102650005DF8047B704700BF00ED00E080B582B0FC
:1026600000AF0120FFF7D6FF72B6214B214A9A60D6
:10267000BFF34F8F62B61E4A1D4BD3F8883043F428
:102680007003C2F888301C4B03F5805314331B6869
:102690007B607B6823F00F037B607B6843F0020361
:1026A0007B60154B03F5805314337A681A60104A27
:1026B0000F4B5B6923F0100353610D4A0C4B5B69B0
:1026C00023F0080353610A4A094B5B6A23F4803301
:1026D0005362074A064B5B6A23F400335362044A91
:1026E000034B5B6A23F4802353620837BD4680BDE9
:1026F00000ED00E0000000080010005880B485B034
:1027000000AF78600023FB737B6801221A70FB7BAB
:1027100018461437BD465DF8047B704780B400AF9F
:10272000024B1846BD465DF8047B7047001BB7009E
:10273000B0B586B000AF114B3C1D1D460FCD0FC488
:102740002B6823603B1D1846FDF732FF0020FEF783
:1027500057F80020FEF70CF80420FEF7DDF8FEF72E
:1027600053F901202021FEF75FF90020FEF714F84D
:102770000120FEF7E5F81837BD46B0BD7C2A0008F9
:1027800080B582B000AF0023FB711D48FFF7B6FF94
:102790000346FB71FB79002B04D11A48FFF7D6F8EA
:1027A0000346FB71FB79002B04D11748FFF7AEFC01
:1027B0000346FB71FB79002B04D11448FFF7B6FEEA
:1027C0000346FB71FB79002B04D11148FFF702FF90
:1027D0000346FB71FB79002B04D10E48FFF7C2FDC5
:1027E0000346FB71FB79002B04D10B48FFF7F2FE87
:1027F0000346FB71FB7918460837BD4680BD00BF14
:1028000068C8FF1F00C8FF1F14C8FF1F502A000818
:10281000542A00082C2A0008682A000880B483B0D3
:1028200000AF78600B46FB70FB7801229A407B6812
:102830005A600C37BD465DF8047B704780B582B0A6
:1028400000AF78607B681A687B681B7C104619466D
:10285000FFF7E4FF0837BD4680BD00BF80B500AF7D
:10286000044B1B8801339AB2024B1A8000F01CF80B
:1028700080BD00BF70C8FF1F80B582B000AFFFF7FA
:102880007FFF0346FB71FB79002B00D0FEE7054B71
:102890001B88B3F57A7F04D900F052F8014B00226F
:1028A0001A80F4E770C8FF1F80B400AF17E0124B26
:1028B0001B781A46114B1B68D3F81C31D9B2104B48
:1028C00099540D4B1B78632B03D10B4B00221A70CC
:1028D00005E0094B1B780133DAB2074B1A70074B3E
:1028E0001B68D3F8143103F00803002BDFD0BD467A
:1028F0005DF8047B704700BF72C8FF1F00C8FF1F50
:1029000074C8FF1F80B500AF09480A490122FFF7CC
:102910004BF80346002B0AD10748FFF78FFF074803
:10292000FFF78CFF024803490122FFF721F880BD21
:1029300000C8FF1FD8C8FF1F542A0008682A0008D3
:1029400080B500AF094B1B78FA2B06D9074B1B78D3
:102950000133DAB2054B1A7002E0044B61221A709F
:10296000034802490122FFF703F880BD6CC8FF1F2E
:1029700000C8FF1F80B400AFBD465DF8047B704700
:1029800070B50E4B0E4CE41AA41000251E46A5424D
:1029900004D056F8253098470135F8E7FEF7EAFEEF
:1029A000084C094BE41AA41000251E46A54204D089
:1029B00056F8253098470135F8E770BD4CC8FF1F21
:1029C0004CC8FF1F4CC8FF1F4CC8FF1F80250000CC
:1029D0000008080110000000900000000100000045
:1029E00002000000008202480E000000D829000802
:1029F000CC290008491F000875290008052900088E
:102A000000000000000000000000000000000000C6
:102A100000000000E4290008000000040401000098
:102A2000000000000100000002000000004004401F
:102A300000820248000000000000000000000000CA
:102A40000000000005010000053F00010007010033
:102A5000313F00010080024800000000000000003B
:102A60000000000007000000008002488000000015
:102A700000000100000000000A00000050030401F3
:102A80000000010000000000000001000101010140
:102A900000000248F02900084CC8FF1F0000000099
:102AA00001000000A08601000060FF9F0A000000F6
:102AB000005000003CC8FF1F00040140030000005C
:102AC0000CC8FF1F01003F9C0101000000B4C404BA
:0C2AD000020000000000014000000000B7
:0400000508000201EC
:00000001FF
