:020000040C00EE
:100000000088FE1F010200089902000899020008FA
:1000100099020008990200089902000800000000F7
:10002000000000000000000000000000990200082D
:1000300099020008000000009902000899020008D7
:100040009902000899020008990200089902000824
:100050009902000899020008990200089902000814
:1000600099020008000000000000000000000000ED
:100070009902000800000000990200089902000897
:1000800099020008990200089902000899020008E4
:1000900099020008990200089902000899020008D4
:1000A00099020008990200089902000899020008C4
:1000B00099020008990200089902000899020008B4
:1000C00099020008990200089902000899020008A4
:1000D0009902000899020008990200089902000894
:1000E0009902000899020008990200089902000884
:1000F0009902000899020008990200089902000874
:100100009902000899020008990200089902000863
:100110009902000899020008990200089902000853
:100120009902000899020008990200089902000843
:100130009902000899020008990200089902000833
:100140009902000899020008990200089902000823
:100150009902000899020008990200089902000813
:10016000000000000000000000000000000000008F
:1001700099020008990200089902000899020008F3
:1001800099020008990200089902000899020008E3
:1001900099020008990200089902000899020008D3
:1001A00099020008990200089902000899020008C3
:1001B00099020008990200089902000899020008B3
:1001C0009902000899020008392000082920000837
:1001D0009902000899020008990200080000000036
:1001E0009902000899020008990200089902000883
:1001F00099020008000000009902000800000000B9
:10020000DFF874D01D4880471D4C1E4DAC4209DA02
:1002100021686268A368043BA2BFC858D050FAE7BF
:100220000C34F3E7184B194CA34208DA19685A68E2
:100230000020043AA4BF8850FBE70833F4E71448D1
:100240008047144880470000C828000C0088FE1F23
:1002500038020000C828000C0088FE1F00000000C3
:10026000388AFE1F18000000000000200000000077
:1002700000000020000000000088FE1F9D02000812
:1002800048020008600200086002000878020008C6
:10029000592700083D270008FEE7000098B500AF89
:1002A000054A4FF0005314460FCB84E80F0001F0CD
:1002B0000FFF01F077FF98BDC4FF032080B584B025
:1002C00000AF2F4BDB6803F48033002B3ED02D4B67
:1002D000DB6803F00103002B02D02B4BFB6002E034
:1002E00001F056FFF860274B1B6803F00403002B56
:1002F00020D0244B9B6803F070631B0E0133BB605E
:10030000204B9B6803F4FE431B0A01337B601D4BAB
:100310009B6803F4FE031B0C01333B60BB683A6827
:1003200002FB03F3FA68B2FBF3F37A6802FB03F310
:10033000FB600DE0134B9B6803F07F0301333B60D0
:10034000FA683B68B2FBF3F3FB6001E00E4BFB6025
:100350000B4BDB68DBB20133FA68B2FBF3F3FB60F3
:10036000074B1B6903F001030133FA68B2FBF3F397
:10037000FB60064AFB6813601037BD4680BD00BFB6
:10038000004600501047005000366E01C0FF0320A9
:1003900080B485B000AFF8600B467A60FB72FB7AE0
:1003A0009B08DBB21846FB7A9B08DBB21A46FB6857
:1003B000043253F82220FB7A03F00303DB001946D2
:1003C000F8238B40DB4302EA0301FB68021D43F87C
:1003D0002210FB685A6FFB7A5B00194603238B409F
:1003E000DB431A40FB685A67FB683A4A934203D0E2
:1003F000FB68394A93420AD1FB681A6EFB7A0121E5
:1004000001FA03F3DB431A40FB681A6642E07B689B
:100410001B78DBB25BB2002B3CDA7B685A68FB7A54
:100420009A40FB685A60FB7ADB08DBB21846FB7A1D
:10043000DB08DBB21A46FB68103253F82220FB7A45
:1004400003F007039B00194607238B40DB4302EAB6
:100450000301FB6800F1100243F82210FB7ADB086D
:10046000DBB21846FB7ADB08DBB21A46FB681032B7
:1004700053F822207B681B7A1946FB7A03F00703A6
:100480009B0001FA03F342EA0301FB6800F110024A
:1004900043F82210FB7A9B08DBB21846FB7A9B08D4
:1004A000DBB21A46FB68043253F822207B681B78C3
:1004B0001946FB7A03F00303DB0001FA03F342EA77
:1004C0000301FB68021D43F822101437BD465DF896
:1004D000047B7047008E0248008F024880B400AF52
:1004E000034B1B681846BD465DF8047B704700BF90
:1004F000C0FF032080B400AF034BD3F8C4301846CC
:10050000BD465DF8047B70470040005080B584B064
:1005100000AF7860FFF7D2FE0B4B1B680B4AA2FBC3
:1005200003239A0C7B6802FB03F37B600023FB60D0
:1005300003E000BFFB680133FB60FA687B689A4206
:10054000F7D31037BD4680BDC0FF032083DE1B43B9
:1005500080B400AF034B5B681846BD465DF8047B72
:10056000704700BF7440005080B483B000AF786023
:10057000034A7B68D3600C37BD465DF8047B704747
:1005800074400050B0B584B002AF7860002000F035
:10059000BFF800F081FA7B68DB79002B0AD000F00D
:1005A000B9FA00BF00F0A4FA034683F00103DBB2FE
:1005B000002BF7D17B685B7A184600F023F900BF67
:1005C000FFF798FF0346002BFAD17B681B7A184689
:1005D00000F03CFA7B681B7C184600F031F97B6820
:1005E0005B7C184600F054F97B689B7C184600F051
:1005F0003BF97B68DB7C184600F05EF97B689B79F1
:10060000002B0AD000F0BEFA00BF00F0E3FA034668
:1006100083F00103DBB2002BF7D17B68DB78002B82
:1006200002D100F0FBFA14E000F0E8FA7B68998848
:100630007B68DA787B685B781D467B681B781C4694
:100640007B689B780093084611462A46234600F0B3
:10065000F5FA7B68DB68B3F5803F03D14FF4803057
:1006600000F056F8FFF72AFE0837BD46B0BD00BFC0
:1006700080B485B000AF78607B681B0FFB607B683F
:1006800023F07043BB60FA6813465B0013449B0081
:100690001A46044B1344BA681A601437BD465DF815
:1006A000047B70471444005080B485B000AF78607C
:1006B0007B681B0FFB607B6823F07043BB60FA68AC
:1006C00013465B0013449B001A46084B13441A68F8
:1006D000BB681340002B14BF01230023DBB2184674
:1006E0001437BD465DF8047B704700BF0C440050D2
:1006F00080B500AFFFF7F2FE0246044B5B6903F0E2
:10070000010322FA03F3184680BD00BF00460050E3
:1007100080B483B000AF78600649064BDB6823F4F1
:1007200080327B681343CB600C37BD465DF8047B99
:10073000704700BF0046005080B483B000AF7860BF
:100740000649064B9B6923F480327B6813438B6117
:100750000C37BD465DF8047B704700BF0046005073
:1007600080B483B000AF78600649064B5B6A23F41F
:1007700040327B6813434B620C37BD465DF8047B07
:10078000704700BF0046005080B483B000AF0346FE
:10079000FB80FB88002B08D10A4A0A4BDB6823F454
:1007A000807323F00103D36007E0064A054BDB6842
:1007B00043F4807343F00103D3600C37BD465DF80A
:1007C000047B70471047005080B483B000AF0346ED
:1007D000FB7100BF094BD3F8C43003F00803002BB2
:1007E000F8D10749064BDB6823F04002FB7913433D
:1007F000CB600C37BD465DF8047B7047004000506D
:100800000043005080B483B000AF0346FB7100BFCB
:10081000094BD3F8C43003F00803002BF8D1074983
:10082000064BDB6823F08002FB791343CB600C3767
:10083000BD465DF8047B7047004000500043005007
:1008400080B483B000AF78600649064BDB6823F0C4
:10085000FF027B68013B1343CB600C37BD465DF85C
:10086000047B70470046005080B483B000AF7860CE
:100870000649064B1B6A23F001027B68013B1343C8
:100880000B620C37BD465DF8047B70470046005094
:1008900080B483B000AF78600649064B1B6923F033
:1008A00001027B68013B13430B610C37BD465DF8C9
:1008B000047B70470046005080B483B000AF78607E
:1008C0000649064B5B6923F001027B68013B134339
:1008D0004B610C37BD465DF8047B70470046005005
:1008E00080B483B000AF78600649064B9B6923F063
:1008F00007027B68013B13438B610C37BD465DF8F3
:10090000047B70470046005080B483B000AF78602D
:100910000649064BDB6923F03F027B68013B13432A
:10092000CB610C37BD465DF8047B70470046005034
:1009300080B483B000AF78600649064B5B6A23F051
:10094000FF027B68013B13434B620C37BD465DF8E9
:10095000047B70470046005080B485B000AF7860DB
:100960007B681B0FFB607B6823F07043BB60FA68F9
:1009700013465B0013449B001A46044B1344BA68A9
:100980001A601437BD465DF8047B70474846005036
:1009900080B485B000AF78607B681B0FFB607B681C
:1009A00023F07043BB60FA6813465B0013449B005E
:1009B0001A46084B13441A68BB681340002B14BF37
:1009C00001230023DBB218461437BD465DF8047BD3
:1009D000704700BF4046005080B483B000AF7860DD
:1009E0003960194A184B5B6943F001035361164A99
:1009F000154B5B6943F01003536113493B68013B9E
:100A00001A027B68013B1B0613434B610E4A0E4BD7
:100A10005B6943F0400353610B4A0B4B5B6923F066
:100A200010035361084A084B5B6943F48023536108
:100A300000BF054B1B6903F00403002BF9D00C37F2
:100A4000BD465DF8047B70471047005080B582B00A
:100A500000AF0346FB710F4A0E4B5B6843F48013F3
:100A60005360FB79012B0ED10A4A0A4B5B6823F4D1
:100A7000801353606420FFF749FD064A054B5B680D
:100A800043F4002353606420FFF740FD0837BD4660
:100A900080BD00BF1047005080B400AF124B1B68F0
:100AA00003F00103002B09D10F4B01225A6000BF54
:100AB0000D4B1B6803F00103002BF9D00B4B1B6897
:100AC00003F40073002B0AD0084B4FF400729A60B5
:100AD00000BF064B1B6803F40073002BF9D1BD4621
:100AE0005DF8047B704700BF004200500044005096
:100AF00080B400AF064B1B6803F00803002B0CBF4B
:100B000001230023DBB21846BD465DF8047B704725
:100B10000043005080B500AF4FF40000FFF724FD04
:100B2000174A174BDB6923F03003D36100BFFFF78F
:100B30000FFD034603F40003002BF8D04FF4003000
:100B4000FFF712FD0E4B08225A6000BFFFF700FDB1
:100B5000034603F40033002BF8D04FF40020FFF7D6
:100B600003FD074A064BDB6843F00803D36000BF70
:100B7000FFF7EEFC034603F40023002BF8D080BD02
:100B800000430050B0B500AF0F4A0F4B5B6823F431
:100B9000803353600D4D0D4B5B6823F4702424F0BB
:100BA000300401F0F5FA0246094BA3FB02231B0DAA
:100BB000013B1B0423436B60034A034B5B6823F434
:100BC00000335360B0BD00BF1047005000470050D5
:100BD0006BCA5F6B80B400AF074B1B6803F4607394
:100BE000B3F5607F0CBF01230023DBB21846BD467E
:100BF0005DF8047B704700BF1047005080B400AF21
:100C0000054A054B5B6823F4803323F002035360ED
:100C1000BD465DF8047B70471047005080B400AFBC
:100C2000054A054B5B6843F4803343F0020353608D
:100C3000BD465DF8047B70471047005080B586B014
:100C400000AFBA607B600346FB810B467B73FB8978
:100C50001846FFF799FD7B7B012B40F08480FB89D0
:100C6000002B09D101F094FA02464B4BA3FB02235F
:100C70009B0C9B057B6102E04FF0C0637B617B694D
:100C80007A6802FB03F2BB68B2FBF3F37B617B691A
:100C9000424AA2FB03231B099B0D3B61404A404B88
:100CA0005B6843F0010353603D4A3D4B5B6843F092
:100CB000100353603A493A4B9A683A4B13407A68AA
:100CC000013A12021A433B69013B1B041A43BB68F9
:100CD000013B1B0613438B60314A314B5B6843F089
:100CE000400353602E4A2E4B5B6823F01003536081
:100CF0002B4A2B4B5B6843F48023536000BF284B87
:100D00001B6803F00403002BF9D0254A244B5B68D1
:100D100023F00103536000BF214B1B6803F0010364
:100D2000002BF9D17B69204AA2FB03235B099B0DB1
:100D30003B613A6A3B699A4202D2386900F038F85E
:100D40007B695B08194AA2FB03235B099B0D3B618E
:100D50003A6A3B699A4202D2386900F029F8386A47
:100D600000F026F815E00E490D4B9B6823F07F023A
:100D70003B6A013B13438B60094A094B5B6843F0B4
:100D80000103536000BF064B1B6803F00103002BF7
:100D9000F9D01837BD4680BD83DE1B43ABAAAAAA93
:100DA00010470050FF8080F089888888B7600BB6B4
:100DB00080B582B000AF78600749074B9B6823F489
:100DC000FE027B68013B1B0413438B603220FFF75C
:100DD0009DFB0837BD4680BD1047005080B483B0EE
:100DE00000AF78600B46FB701346BB707B685A6F90
:100DF000FB785B00194603238B40DB431A407B687A
:100E00005A677B685A6FBB78F97849008B401A4360
:100E10007B685A670C37BD465DF8047B704700BF9E
:100E200080B582B000AF78603960786800F084F8EF
:100E30003B685B79002B12D13B681B79002B07D0F4
:100E40003B681B6878681946022200F031F906E019
:100E50003B681B6878681946022200F0B9F87B6885
:100E60000E4A5A637B684FF4A2629A633B685B79CF
:100E7000002B07D13B689B7943F00B03DBB21A468A
:100E80007B68DA637B684FF0FF32DA643B681B896A
:100E90001A467B681A640837BD4680BD02013F07C9
:100EA00080B483B000AF786039607B68DB6B23F47B
:100EB0007F027B68DA637B68DA6B3B681A437B6886
:100EC000DA630C37BD465DF8047B704780B485B0AB
:100ED00000AF78607B68D3F80C3103F0E063002B3F
:100EE00003D17B685B6DFB8103E07B68D3F81C3129
:100EF000FB81FB8918461437BD465DF8047B7047BB
:100F000080B483B000AF786039607B681A6C3B684E
:100F100003F4FE33DB431A407B681A647B68DA6BA8
:100F20003B685B039BB2DB431A407B68DA630C3798
:100F3000BD465DF8047B704780B582B000AF786035
:100F40007B681A4A934203D07B68194A934203D1C3
:100F5000184800F0F9F916E07B68174A934203D06D
:100F60007B68164A934203D1154800F0EDF90AE078
:100F70007B68144A934203D07B68134A934202D1A0
:100F8000124800F0E1F97B680322DA6000BF7B6859
:100F9000DB6803F00103002BF9D07B681B6C23F0A6
:100FA0000F027B681A640837BD4680BD000003400D
:100FB000000203400800034000000248000202480B
:100FC0000800024800400248004202480840024827
:100FD00080B58EB000AFF860B9607A60BB68632BF3
:100FE00058D97B68002B55D0FFF782FB02462E4B69
:100FF000A3FB02235B093B62BB682B4AA2FB0323D2
:101000005B09BB600123FB620123BB6240F2FF333B
:101010007B6240F2FF333B6322E03B6A3A6B02FBA8
:1010200003F2BB68796801FB03F3B2FBF3F3FB61E6
:10103000FB699B0ABB61FB69C3F309037B61BB6965
:10104000B3F5806F09D27A697B6A9A4205D27B69CF
:101050007B62BB69BB623B6BFB623B6B013B3B63EF
:101060003B6B002BD9D1FB6A43F40042FB681A6149
:10107000FB685A690D4B13407A68013A92021A4391
:10108000BB6A013B1B041A43FB685A61002387F8C3
:10109000373002E0012387F8373097F837301846A9
:1010A0003837BD4680BD00BF1F85EB51EF8000FC87
:1010B00080B58CB000AFF860B9607A60FFF718FBBC
:1010C00003463B62BB687A6802FB03F3FB610123C2
:1010D000FB623A6AFB699A425FDD3A6AFB6992FBFE
:1010E000F3F3BB6210E0FB6A0133FB62BB687A6812
:1010F00002FB03F31A46FB6A03FB02F3FB613A6A45
:10110000FB6992FBF3F3BB62BB6A40F2FE3293428F
:10111000E9D83A6A7B68B96A01FB03F3F96A01FB13
:1011200003F3B2FBF3F3BB613A6ABB6A013379683C
:1011300001FB03F3F96A01FB03F3B2FBF3F37B61F9
:10114000BA687B69D31A83EAE372A2EBE372B968E7
:10115000BB69CB1A002BB8BF5B429A4202DABB6A6A
:101160000133BB62BB6AC3F58063BB62BB6A43F4F5
:101170008042FB681A61FB685A690C4B13407A681D
:10118000013A92021A43FB6A013B1B041A43FB68B3
:101190005A61002387F8273002E0012387F82730BF
:1011A00097F8273018463037BD4680BDEF8000FCE9
:1011B00080B485B000AFF860B9603B601346FB7146
:1011C000FB68D3F8083123F0E062FB68C3F808211C
:1011D000FB68D3F80821094B13403A681102BA683A
:1011E0001143FA7912060A431A43FB68C3F808212F
:1011F0001437BD465DF8047B704700BFC0C0FFF8E0
:1012000080B485B000AFF860B9603B601346FB71F5
:10121000FB68D3F80C3123F0E062FB68C3F80C21C3
:10122000FB68D3F80C210A4B13403A681102BA68E4
:101230001143FA7912060A43134343F08052FB68C4
:10124000C3F80C211437BD465DF8047B704700BF1E
:10125000C0C0FFEF80B485B000AFF8600B467A6085
:10126000FB72FB68D3F80C3123F0E062FB68C3F833
:101270000C21FB68D3F80C3123F47C527B681B02F1
:101280001A43FB7A1B061A43FB68C3F80C21143778
:10129000BD465DF8047B704780B485B000AFF86050
:1012A0000B467A60FB72FB689A69FB7A072101FAA8
:1012B00003F3DB431A40FB7A796801FA03F31A431C
:1012C000FB689A611437BD465DF8047B704700BF28
:1012D00080B485B000AFF8600B467A60FB72FB68A3
:1012E000D3F80821FB7A072101FA03F3DB431A4004
:1012F000FB7A796801FA03F31A43FB68C3F8082103
:101300001437BD465DF8047B704700BF80B485B0DC
:1013100000AFF8600B467A60FB72FB68D3F80C21D3
:10132000FB7A072101FA03F3DB431A40FB7A796861
:1013300001FA03F31A43FB68C3F80C211437BD46C6
:101340005DF8047B704700BF80B582B000AF786065
:101350007B68284A934218D14FF40060FFF7FCFAEB
:1013600000BF4FF40060FFF713FB0346002BF8D1DA
:101370004FF40060FFF77CF900BF4FF40060FFF707
:1013800093F90346002BF8D130E07B681A4A934268
:1013900014D11A48FFF7E0FA00BF1848FFF7F8FA2F
:1013A0000346002BF9D11548FFF762F900BF134837
:1013B000FFF77AF90346002BF9D117E07B68104A52
:1013C000934213D10F48FFF7C7FA00BF0D48FFF74C
:1013D000DFFA0346002BF9D10A48FFF749F900BFAD
:1013E0000848FFF761F90346002BF9D10837BD46DD
:1013F00080BD00BF080003400800024880000010C4
:10140000084002480001001080B400AFBD465DF8FE
:10141000047B704780B485B000AFF8600B467A60FB
:101420007B817989FB687A68203243F8221014376F
:10143000BD465DF8047B704780B483B000AF786030
:1014400039607B681A6C3B681A437B681A640C37F6
:10145000BD465DF8047B704780B483B000AF786010
:1014600039607B681A6C3B68DB431A407B681A64FE
:101470000C37BD465DF8047B704700BF80B483B075
:1014800000AF78607B689B6BDBB223F07F03DBB23D
:1014900018460C37BD465DF8047B704780B483B0B6
:1014A00000AF78607B681B6D03F4C04318460C37AF
:1014B000BD465DF8047B704780B483B000AF7860B0
:1014C00039603B684FF480329A407B689A660C37EB
:1014D000BD465DF8047B704780B483B000AF786090
:1014E00039607B68D3F808213B681A437B68C3F8EE
:1014F00008210C37BD465DF8047B704780B483B08B
:1015000000AF786039607B68D3F808213B68DB4323
:101510001A407B68C3F808210C37BD465DF8047B90
:10152000704700BF80B485B000AFF8600B467A60AA
:101530007B817989FB687A68603243F8221014371E
:10154000BD465DF8047B704780B483B000AF78601F
:101550007B684FF40042C3F818210C37BD465DF894
:10156000047B704780B483B000AF78607B68D3F8A9
:10157000143103F48053002B14BF01230023DBB28A
:1015800018460C37BD465DF8047B704780B483B0C5
:1015900000AF78607B68D3F8143103F40063002B4C
:1015A00014BF01230023DBB218460C37BD465DF89B
:1015B000047B704780B483B000AF786039607B688B
:1015C000D3F80C213B68DB431A407B68C3F80C213D
:1015D0000C37BD465DF8047B704700BF80B483B014
:1015E00000AF78607B68D3F8143103F00803002B58
:1015F00014BF01230023DBB218460C37BD465DF84B
:10160000047B704780B483B000AF78600B46FB70FA
:101610007B681B6C23F0C002FB789B01DBB21A4392
:101620007B681A640C37BD465DF8047B704700BFC9
:1016300080B584B000AF78607B685B685B68984772
:101640000346FB73FB7B18461037BD4680BD00BFC9
:1016500080B586B000AFF860B9607A600123FB7591
:10166000FB685B6893F88430002B06D1F868B96892
:101670007A6800F007F80346FB75FB7D18461837BB
:10168000BD4680BD80B588B000AFF860B9607A60B3
:101690000123BB610423FB77FB689B687B61FB68CC
:1016A0005B6893F88430002B5CD1BB68002B57D06B
:1016B0007B68002B54D00223FB777B6993F82030A2
:1016C000DBB283F00103DBB2002B48D0FB689B68E0
:1016D0001B68082B01D90223BB617B69BA689A6138
:1016E000BB69013B1A467B6803FA02F27B695A60C8
:1016F0007B6900229A607B69012283F82020FB68C5
:101700005B6893F87C30002B0CD0FB681B68184694
:10171000FFF71AFFFB681B6818464FF08041FFF780
:10172000DBFE06E0FB681B6818464FF40051FFF72C
:1017300083FEFB681A687B691B7FDBB21046194683
:10174000FFF760FF0023FB77FB681A68FB685B68A4
:1017500093F8893010461946FFF7AEFE02E001E02B
:101760000323FB77FB7F18462037BD4680BD00BFB3
:1017700090B587B000AF786001233B617B689B68C0
:10178000FB607B689B681B68082B01D902233B61C7
:10179000FB689A68FB685B689A4280F08B80002344
:1017A000FB827B685B6893F87C30002B4BD03EE07B
:1017B000FB689A68FB685B689A4236D2FB6893F8CC
:1017C0002130DBB2002B0BD07B681A68FB681B7FD3
:1017D000DBB210464FF6FF711A46FFF7A3FE1DE07D
:1017E0003B69022B07D1FB689A69FB689B6813442D
:1017F0001B88FB8206E0FB689A69FB689B681344C0
:101800001B78FB827B681A68FB681B7FDBB21C4677
:10181000FB8A104619462246FFF784FEFB689A6849
:101820003B691A44FB689A6001E000BF80E07B6876
:101830001B681846FFF796FE034683F00103DBB2F0
:10184000002BB5D174E0FB6893F82130DBB2002B9C
:101850000BD07B681A68FB681B7FDBB210464FF623
:10186000FF711A46FFF7D6FD1DE03B69022B07D139
:10187000FB689A69FB689B6813441B88FB8206E03F
:10188000FB689A69FB689B6813441B78FB827B6842
:101890001A68FB681B7FDBB21C46FB8A10461946A0
:1018A0002246FFF7B7FDFB689A683B691A44FB685C
:1018B0009A603DE07B681B681846FFF767FE0346A9
:1018C000002B35D07B685B6893F87C30002B07D009
:1018D0007B681B6818464FF08041FFF70FFE06E05B
:1018E0007B681B6818464FF40051FFF7B5FD00BF39
:1018F0007B681B681846FFF7C1FD0346802BF7D0B5
:10190000FB68002283F82020FB6800229A617B6834
:101910005B681B6F002B0BD0FB68DB7FDBB283F0B7
:101920000103DBB2002B03D07B685B681B6F984719
:101930001C37BD4690BD00BF80B586B000AF786053
:1019400001237B617B689B683B610023FB817B6893
:101950009B681B68082B01D902237B617B685B684D
:1019600093F87D30002B1DD07868796900F0B6F8C7
:101970003B69DA683B691B69D21A7B685B6893F83C
:101980007D30013B012101FA03F39A4200F2A2806B
:101990003B69DA683B691B69D31A7868194600F01D
:1019A000FFF897E07B681B681846FFF777FD034652
:1019B00003F40053002B28D03B691A693B69DB68AC
:1019C0009A4222D27B681B681846FFF77FFA0346CB
:1019D000FB813B695A693B691B691344FA89D2B29E
:1019E0001A707B69022B0AD13B695A693B691B69F2
:1019F00001331344FA89120A92B2D2B21A703B69C7
:101A00001A697B691A443B691A617B681B6818462E
:101A1000FFF744FD034603F48043002B28D03B69C5
:101A20001A693B69DB689A4222D27B681B681846B8
:101A3000FFF74CFA0346FB813B695A693B691B6916
:101A40001344FA89D2B21A707B69022B0AD13B691E
:101A50005A693B691B6901331344FA89120A92B22D
:101A6000D2B21A703B691A697B691A443B691A61E0
:101A70003B691A693B69DB689A422BD17B685B68DA
:101A800093F87D30002B07D07B681B6818464FF019
:101A9000C041FFF78FFD06E07B681B6818464FF4D6
:101AA0004041FFF72DFA3B690022DA773B690022BB
:101AB00083F821203B69012283F822203B69002220
:101AC0005A617B685B685B6F002B03D07B685B6847
:101AD0005B6F98471837BD4680BD00BF80B584B0A6
:101AE00000AF786039607B689B68FB6000237B8176
:101AF00047E0FB681A69FB68DB689A4222D27B6880
:101B00001B681846FFF7E2F903467B81FB685A69B8
:101B1000FB681B6913447A89D2B21A703B68022BA6
:101B20000AD1FB685A69FB681B69013313447A893F
:101B3000120A92B2D2B21A70FB681A693B681A4450
:101B4000FB681A61FB681A69FB68DB689A4218D166
:101B5000FB680022DA77FB68002283F821207B688B
:101B60001B6818464FF0C041FFF724FD7B685B6897
:101B70005B6F002B04D07B685B685B6F98470BE062
:101B80000AE07B681B681846FFF728FD034683F0D0
:101B90000103DBB2002BACD11037BD4680BD00BFC6
:101BA00080B584B000AF786039607B685B6893F87B
:101BB0007D30002B28D03B68002B25D07B685B68EC
:101BC00093F87D30013B012202FA03F3BB607B688E
:101BD0009B681B68082B02D93B685B083B603A682E
:101BE000BB689A4203D83B68013BFB6001E0BB68DD
:101BF000FB607B681A687B685B6893F87D301046F1
:101C00001946FA68FFF726FB1037BD4680BD00BFB6
:101C100080B400AF044BDB6803F4E0631B0A184692
:101C2000BD465DF8047B704700ED00E080B483B0F2
:101C300000AF0346FB7197F90730002B0BDB084917
:101C400097F907305B09FA7902F01F02012000FAC8
:101C500002F241F823200C37BD465DF8047B704743
:101C600000E100E080B483B000AF03463960FB714F
:101C700097F90730002B0ADB0D4997F907303A68CE
:101C8000D2B29200D2B20B4483F800230AE0094991
:101C9000FB7903F00F03043B3A68D2B29200D2B250
:101CA0000B441A760C37BD465DF8047B704700BFC5
:101CB00000E100E000ED00E080B489B000AFF86022
:101CC000B9607A60FB6803F00703FB61FB69C3F14D
:101CD0000703062B28BF0623BB61FB690633062BCF
:101CE00002D9FB69013B00E000237B61BB69012253
:101CF00002FA03F35A1EBB681A407B699A407B695B
:101D0000012101FA03F3591E7B680B401343184667
:101D10002437BD465DF8047B704700BF80B483B0B4
:101D200000AF78600B46FB701346BB70F878FB7809
:101D30007A6806339B0013445B6823F00702BB7884
:101D40001A437968831D9B000B445A600C37BD46CB
:101D50005DF8047B704700BF80B483B000AF78604B
:101D60000B46FB707B685B6B23F07062FB78013B7A
:101D70001B061A437B685A630C37BD465DF8047B2B
:101D8000704700BF80B483B000AF78600B46FB7033
:101D90007B685B6B23F47C12FB78013B1B041A43CA
:101DA0007B685A630C37BD465DF8047B704700BF03
:101DB00080B485B000AFF860B9607A60FB685B6999
:101DC00023F05042BB681A437B681A43FB685A6190
:101DD0001437BD465DF8047B704700BF80B483B004
:101DE00000AF78600B46FB707B681B6C23F00F0222
:101DF000FB781A437B681A640C37BD465DF8047B98
:101E0000704700BF80B582B000AF7860786801216C
:101E1000FFF7E4FF0837BD4680BD00BF80B483B044
:101E200000AF78607B685B6B43F001027B685A63AC
:101E30000C37BD465DF8047B704700BF80B483B0AB
:101E400000AF786039607B685B6923F4FE423B68D1
:101E5000013B9B02134343F480727B685A610C3749
:101E6000BD465DF8047B704780B584B000AFF86074
:101E7000B9607A60F868B9687A68FFF799FF103737
:101E8000BD4680BD80B582B000AF78600B46FB7068
:101E9000FB7878681946FFF75FFF0837BD4680BDBD
:101EA00080B582B000AF78600B46FB70FB78786835
:101EB0001946FFF767FF0837BD4680BD80B582B081
:101EC00000AF78600B46FB701346BB70F878FB7868
:101ED0007A6806339B0013445B6823F0500343F099
:101EE00010027968831D9B000B445A60FA78BB7816
:101EF000786811461A46FFF711FF0837BD4680BDC6
:101F000080B582B000AF0023FB713F483F49FEF728
:101F100087FF3D48FFF782FF3B480821FFF7B2FFEC
:101F200039484021FFF7BCFF374800210022FFF766
:101F30009BFF35480221FFF781FF35480721354ACD
:101F4000FEF726FA304800210222FFF7B7FF2E489D
:101F5000FFF758FF2E4808212F4AFEF719FA2C48A0
:101F600009212E4AFEF714FA2D4806212D4AFEF7C4
:101F70000FFA25484FF40021FEF792FF2248102166
:101F80000022FFF789F92048102104220123FFF7DE
:101F90000FF91D4810210322FFF79AF91A48002172
:101FA00004220023FFF72CF9174810210222FFF723
:101FB000ADF9154813210222FFF7A8F9FFF728FE13
:101FC000034618463F210022FFF776FE03466320B2
:101FD0001946FFF747FE6320FFF728FEFFF718FEBC
:101FE000034618463E210022FFF766FE03466220A4
:101FF0001946FFF737FE6220FFF718FEFB791846F7
:102000000837BD4680BD00BF004002481488FE1F4F
:1020100000830248388AFE1F0088FE1FBC27000884
:1020200000850248D827000880B500AF0148FFF7B7
:102030009FFB80BD4488FE1F80B500AF0148FFF7BD
:102040007BFC80BD4488FE1F80B582B000AF786005
:102050007B6819687B681A7C7B68043308461146E4
:102060001A46FEF795F97B6819687B681A7C7B68CD
:102070005B7C084611461A46FEF7B0FE0023184660
:102080000837BD4680BD00BF80B485B000AF786022
:102090007B6803F00703FB600C4BDB68BB60BA682E
:1020A0004FF6FF031340BB60FB681A02BB68134383
:1020B00043F0BF6343F40033BB60044ABB68D360A2
:1020C0001437BD465DF8047B704700BF00ED00E0AB
:1020D00080B582B000AF0120FFF7D6FF72B6214B6A
:1020E000214A9A60BFF34F8F62B61E4A1D4BD3F848
:1020F000883043F47003C2F888301C4B03F58053DA
:1021000014331B687B607B6823F00F037B607B6864
:1021100043F004037B60154B03F5805314337A6856
:102120001A60104A0F4B5B6923F0100353610D4A8C
:102130000C4B5B6923F0080353610A4A094B5B6A45
:1021400023F480335362074A064B5B6A23F400335F
:102150005362044A034B5B6A23F4802353620837BB
:10216000BD4680BD00ED00E00000000800100058F2
:1021700080B485B000AF78600023FB737B680122D8
:102180001A70FB7B18461437BD465DF8047B704718
:1021900080B400AF024B1846BD465DF8047B704723
:1021A000001BB700B0B586B000AF124B3C1D1D46FA
:1021B0000FCD0FC42B6823603B1D1846FEF7E2F9D4
:1021C0000020FEF701FB0020FEF7B6FA0420FEF720
:1021D00087FB01202021FEF7FFFB0020FEF7C0FA5D
:1021E0000120FEF7A5FB0120FEF78EFB1837BD4648
:1021F000B0BD00BFB428000880B582B000AF002396
:10220000FB711548FFF7B4FF0346FB71FB79002B08
:1022100004D11248FFF70CFA0346FB71FB79002B3F
:1022200004D10F48FFF710FF0346FB71FB79002B29
:1022300004D10C48FFF708FF0346FB71FB79002B24
:1022400004D10948FFF700FF0346FB71FB791846EC
:102250000837BD4680BD00BF4C8AFE1F4488FE1F64
:10226000782800088C280008A028000880B483B0D3
:1022700000AF78600B46FB70FB7801229A407B68C8
:102280005A600C37BD465DF8047B704780B483B05C
:1022900000AF78600B46FB70FB784FF480329A40B9
:1022A0007B685A600C37BD465DF8047B704700BF01
:1022B00080B582B000AF78607B681A687B681B7C51
:1022C00010461946FFF7D2FF0837BD4680BD00BF54
:1022D00080B582B000AF78607B681A687B681B7C31
:1022E00010461946FFF7D2FF0837BD4680BD00BF34
:1022F00080B582B002AF8348FFF79AF98248FFF7B2
:10230000E7FF8148FFF7D4FF8048FFF7D1FF8048FF
:10231000FFF7CEFF042000F0FDF8012000F012F9D5
:10232000042000F0F7F8002000F00CF9062000F07F
:10233000F1F8002000F006F9022000F0EBF801208F
:1023400000F000F9032000F0E5F8302000F0FAF882
:10235000282000F0DFF87F2000F0F4F8292000F0BA
:10236000D9F8002000F0EEF8142000F0D3F8312066
:1023700000F0E8F8162000F0CDF8762000F0E2F842
:10238000102000F0C7F8452000F0DCF8112000F024
:10239000C1F8342000F0D6F8122000F0BBF833204A
:1023A00000F0D0F8082000F0B5F8042000F0CAF8DA
:1023B000092000F0AFF8052000F0C4F80A2000F072
:1023C000A9F8052000F0BEF80B2000F0A3F89D202E
:1023D00000F0B8F80C2000F09DF88C2000F0B2F866
:1023E0000D2000F097F8572000F0ACF8802000F0A6
:1023F00091F8002000F0A6F8132000F08BF8A02040
:1024000000F0A0F800209F2100F0F4F800207F21C8
:1024100000F00AF9062000F07DF8012000F092F8A3
:10242000002000F01BF90023009314203A212822F9
:102430006FF07F4300F096F8002300931B203A21B1
:1024400045226FF07F4300F08DF800230093222097
:102450003A214C226FF07F4300F084F80023009370
:1024600029203A214C226FF07F4300F07BF80023B3
:10247000009330203A214F226FF07F4300F072F832
:102480000023009337203A2100226FF07F4300F0B1
:1024900069F8002300933E203A2137226FF07F43F2
:1024A00000F060F80023009345203A214F226FF09E
:1024B0007F4300F057F8002300934C203A2152222A
:1024C0006FF07F4300F04EF80023009353203A2131
:1024D0004C226FF07F4300F045F8002300935A2010
:1024E0003A2144226FF07F4300F03CF80023009330
:1024F00061203A2101226FF07F4300F033F8BD469E
:1025000080BD00BF4488FE1F782800088C28000882
:10251000A028000880B582B000AF0346FB710748D1
:10252000FFF7D6FEFB79064819460122FFF790F81F
:102530000248FFF7BDFE0837BD4680BD8C28000865
:102540004488FE1F80B582B000AF0346FB71FB7963
:10255000034819460122FFF77BF80837BD4680BDC6
:102560004488FE1F80B586B000AF3B600346FB7118
:102570000B46BB7113467B718023FB7300237B6189
:102580002FE0FA79BB791046194600F081F800F087
:1025900099F800233B6118E07A79154913469B00AE
:1025A00013443A6913440B441A78FB7B1340DBB2A3
:1025B000FA7B9A4203D1386800F08AF802E0386A60
:1025C00000F086F83B6901333B613B69042BE3DD96
:1025D000BB790133BB71FB7B5B08FB737B69013308
:1025E0007B617B69072BCCDD1837BD4680BD00BF02
:1025F0005088FE1F80B582B000AF03460A46FB71CB
:102600001346BB711720FFF785FFFB791846FFF7CC
:1026100099FF1820FFF77EFFBB791846FFF792FF5E
:102620000837BD4680BD00BF80B582B000AF03460D
:102630000A46FB711346BB711920FFF76BFFFB794C
:102640001846FFF77FFF1A20FFF764FFBB79184693
:10265000FFF778FF0837BD4680BD00BF80B584B066
:1026600000AF78600020002100F012F800F02AF896
:102670000023FB6005E0786800F02AF8FB6801336E
:10268000FB60FB68B3F5A04FF5D31037BD4680BDA6
:1026900080B582B000AF03460A46FB711346BB719A
:1026A0002020FFF737FFFB791846FFF74BFF21206B
:1026B000FFF730FFBB791846FFF744FF0837BD46E8
:1026C00080BD00BF80B500AF2220FFF723FF80BD93
:1026D00080B582B000AF78607B681B0CDBB2184617
:1026E00000F00EF87B681B0ADBB2184600F008F811
:1026F0007B68DBB2184600F003F80837BD4680BDA2
:1027000080B582B000AF0346FB710948FFF7E0FDDA
:102710000848FFF7DDFDFB79074819460122FEF75F
:1027200097FF0348FFF7C4FD0837BD4680BD00BFD3
:10273000A0280008782800084488FE1F80B582B0D1
:1027400000AFFFF759FD0346FB71FB79002B00D06A
:10275000FEE7FFF7CDFDFEE770B50E4B0E4CE41A19
:10276000A41000251E46A54204D056F825309847EF
:102770000135F8E7FEF748FE084C094BE41AA410AF
:1027800000251E46A54204D056F82530984701354D
:10279000F8E770BD388AFE1F388AFE1F388AFE1F90
:1027A000388AFE1F008302480800000000830248A8
:1027B00007000000008302480900000088000000B4
:1027C0000100000001000000000000000000000007
:1027D000008502480600000088000000010000009B
:1027E0000100000000000000000008001488FE1F27
:1027F000011F0008A42700080088FE1FAC2700085E
:10280000388AFE1F000000000000000000000000E9
:1028100000000000B4270008BC270008D0270008EB
:1028200000000000000000000000000000000000A8
:10283000000000000000000000000000D827000891
:102840000000000000000000000000000000000088
:102850000000000000000000000000000000000078
:102860000000000000000000040400000000000060
:102870000000000102030200008102488000000005
:102880000000010000000000090000000081024873
:102890008000000000000100000000000A000000AD
:1028A00000830248800000000100000000000000DA
:1028B0000A000000300201010000010000000000D9
:0828C00000000100020101010A
:1028C8008800000001000000010000000000000076
:1028D80000000000004B00000000040000000000A1
:1028E80008000000000000000000000000000000D8
:1028F80000000000000000000000000000020700C7
:102908000000010000400248EC2700082088FE1F54
:10291800000000000000004F00000007000700143E
:102928007F147F14242A7F2A1223130864623649ED
:102938005522500005030000001C224100004122DE
:102948001C0014083E081408083E0808005030000F
:102958000008080808080060600000201008040249
:102968003E5149453E00427F40004261514946215F
:1029780041454B311814127F1027454545393C4ACB
:10298800494930017109050336494949360649491B
:10299800291E003636000000563600000814224171
:1029A80000141414141400412214080201510906D9
:1029B800324979413E7E1111117E7F494949363E9F
:1029C800414141227F4141221C7F494949417F09B8
:1029D8000909013E4149497A7F0808087F00417F7B
:1029E80041002040413F017F081422417F40404080
:1029F800407F020C027F7F0408107F3E4141413E28
:102A08007F090909063E4151215E7F091929464679
:102A18004949493101017F01013F4040403F1F20A2
:102A280040201F3F4038403F631408146307087074
:102A380008076151494543007F41410002040810DD
:102A4800200041417F000402010204404040404010
:102A5800010204000020545454787F484444383814
:102A680044444420384444487F3854545418087E19
:102A7800090102064949493F7F0804047800447D5A
:102A880040002040443D007F1028440000417F4022
:102A9800007C0418047C7C080404783844444438D6
:102AA8007C14141408081414187C7C0804040848BE
:102AB80054545420043F4440203C4040207C1C2077
:102AC80040201C3C4030403C44281028440C5050C6
:102AD800503C4464544C44000836410000007F00D8
:102AE8000000413608000201020402080C0E0C081E
:082AF80008183818080000005E
:0400000508000201EC
:00000001FF
